{
  "contractName": "DescroHelper",
  "abi": [
    {
      "constant": true,
      "inputs": [
        {
          "name": "",
          "type": "uint256"
        }
      ],
      "name": "escrows",
      "outputs": [
        {
          "name": "createdAt",
          "type": "uint256"
        },
        {
          "name": "buyer",
          "type": "address"
        },
        {
          "name": "seller",
          "type": "address"
        },
        {
          "name": "balance",
          "type": "uint256"
        },
        {
          "name": "status",
          "type": "uint256"
        }
      ],
      "payable": false,
      "stateMutability": "view",
      "type": "function"
    },
    {
      "constant": false,
      "inputs": [],
      "name": "renounceOwnership",
      "outputs": [],
      "payable": false,
      "stateMutability": "nonpayable",
      "type": "function"
    },
    {
      "constant": true,
      "inputs": [],
      "name": "owner",
      "outputs": [
        {
          "name": "",
          "type": "address"
        }
      ],
      "payable": false,
      "stateMutability": "view",
      "type": "function"
    },
    {
      "constant": true,
      "inputs": [],
      "name": "fee",
      "outputs": [
        {
          "name": "",
          "type": "uint256"
        }
      ],
      "payable": false,
      "stateMutability": "view",
      "type": "function"
    },
    {
      "constant": false,
      "inputs": [
        {
          "name": "_newOwner",
          "type": "address"
        }
      ],
      "name": "transferOwnership",
      "outputs": [],
      "payable": false,
      "stateMutability": "nonpayable",
      "type": "function"
    },
    {
      "anonymous": false,
      "inputs": [
        {
          "indexed": false,
          "name": "buyer",
          "type": "address"
        },
        {
          "indexed": false,
          "name": "seller",
          "type": "address"
        },
        {
          "indexed": false,
          "name": "escrowId",
          "type": "uint256"
        },
        {
          "indexed": false,
          "name": "balance",
          "type": "uint256"
        }
      ],
      "name": "NewEscrow",
      "type": "event"
    },
    {
      "anonymous": false,
      "inputs": [
        {
          "indexed": true,
          "name": "previousOwner",
          "type": "address"
        }
      ],
      "name": "OwnershipRenounced",
      "type": "event"
    },
    {
      "anonymous": false,
      "inputs": [
        {
          "indexed": true,
          "name": "previousOwner",
          "type": "address"
        },
        {
          "indexed": true,
          "name": "newOwner",
          "type": "address"
        }
      ],
      "name": "OwnershipTransferred",
      "type": "event"
    },
    {
      "constant": false,
      "inputs": [
        {
          "name": "_fee",
          "type": "uint256"
        }
      ],
      "name": "setFee",
      "outputs": [],
      "payable": false,
      "stateMutability": "nonpayable",
      "type": "function"
    }
  ],
  "bytecode": "0x6080604052655af3107a4000600155336000806101000a81548173ffffffffffffffffffffffffffffffffffffffff021916908373ffffffffffffffffffffffffffffffffffffffff1602179055506105df8061005d6000396000f300608060405260043610610078576000357c0100000000000000000000000000000000000000000000000000000000900463ffffffff168063012f52ee1461007d57806369fe0e2d14610132578063715018a61461015f5780638da5cb5b14610176578063ddca3f43146101cd578063f2fde38b146101f8575b600080fd5b34801561008957600080fd5b506100a86004803603810190808035906020019092919050505061023b565b604051808681526020018573ffffffffffffffffffffffffffffffffffffffff1673ffffffffffffffffffffffffffffffffffffffff1681526020018473ffffffffffffffffffffffffffffffffffffffff1673ffffffffffffffffffffffffffffffffffffffff1681526020018381526020018281526020019550505050505060405180910390f35b34801561013e57600080fd5b5061015d600480360381019080803590602001909291905050506102c0565b005b34801561016b57600080fd5b50610174610325565b005b34801561018257600080fd5b5061018b610427565b604051808273ffffffffffffffffffffffffffffffffffffffff1673ffffffffffffffffffffffffffffffffffffffff16815260200191505060405180910390f35b3480156101d957600080fd5b506101e261044c565b6040518082815260200191505060405180910390f35b34801561020457600080fd5b50610239600480360381019080803573ffffffffffffffffffffffffffffffffffffffff169060200190929190505050610452565b005b60028181548110151561024a57fe5b90600052602060002090600502016000915090508060000154908060010160009054906101000a900473ffffffffffffffffffffffffffffffffffffffff16908060020160009054906101000a900473ffffffffffffffffffffffffffffffffffffffff16908060030154908060040154905085565b6000809054906101000a900473ffffffffffffffffffffffffffffffffffffffff1673ffffffffffffffffffffffffffffffffffffffff163373ffffffffffffffffffffffffffffffffffffffff1614151561031b57600080fd5b8060018190555050565b6000809054906101000a900473ffffffffffffffffffffffffffffffffffffffff1673ffffffffffffffffffffffffffffffffffffffff163373ffffffffffffffffffffffffffffffffffffffff1614151561038057600080fd5b6000809054906101000a900473ffffffffffffffffffffffffffffffffffffffff1673ffffffffffffffffffffffffffffffffffffffff167ff8df31144d9c2f0f6b59d69b8b98abd5459d07f2742c4df920b25aae33c6482060405160405180910390a260008060006101000a81548173ffffffffffffffffffffffffffffffffffffffff021916908373ffffffffffffffffffffffffffffffffffffffff160217905550565b6000809054906101000a900473ffffffffffffffffffffffffffffffffffffffff1681565b60015481565b6000809054906101000a900473ffffffffffffffffffffffffffffffffffffffff1673ffffffffffffffffffffffffffffffffffffffff163373ffffffffffffffffffffffffffffffffffffffff161415156104ad57600080fd5b6104b6816104b9565b50565b600073ffffffffffffffffffffffffffffffffffffffff168173ffffffffffffffffffffffffffffffffffffffff16141515156104f557600080fd5b8073ffffffffffffffffffffffffffffffffffffffff166000809054906101000a900473ffffffffffffffffffffffffffffffffffffffff1673ffffffffffffffffffffffffffffffffffffffff167f8be0079c531659141344cd1fd0a4f28419497f9722a3daafe3b4186f6b6457e060405160405180910390a3806000806101000a81548173ffffffffffffffffffffffffffffffffffffffff021916908373ffffffffffffffffffffffffffffffffffffffff160217905550505600a165627a7a72305820a9403c8fdb292fae27ed69058953cde8f82e81c401179d75bc60c7beb60715a30029",
  "source": "pragma solidity ^0.4.23;\n\nimport \"./Ownable.sol\";\n\ncontract DescroHelper is Ownable {\n  uint constant CREATED = 0;\n  uint constant DEPOSITED = 1;\n  uint constant PRODUCT_SENT = 2;\n  uint constant APPROVED = 3;\n  uint constant CANCELLED = 4;\n  uint constant COMPLETED = 5;\n  uint constant REFUNDED = 6;\n\n  uint public fee = 0.0001 ether;\n\n  event NewEscrow(address buyer, address seller, uint escrowId, uint balance);\n\n  struct Escrow {\n    uint createdAt;\n    address buyer;\n    address seller;\n    uint balance;\n    uint status;\n  }\n\n  Escrow[] public escrows;\n\n  mapping (address => uint) escrowCountByOwner;\n\n  modifier onlyValidAddress(address _address) {\n    require(_address != 0x0);\n    _;\n  }\n\n  modifier onlyStatus(uint _id, uint _status) {\n    require(escrows[_id].status == _status);\n    _;\n  }\n\n  modifier moreThanFee() {\n    require(msg.value > fee);\n    _;\n  }\n\n  modifier onlyBuyerOrSeller(uint _id) {\n    Escrow memory escrow = escrows[_id];\n    require(msg.sender == escrow.buyer || msg.sender == escrow.seller);\n    _;\n  }\n\n  modifier onlyBuyer(uint _id) {\n    Escrow memory escrow = escrows[_id];\n    require(msg.sender == escrow.buyer);\n    _;\n  }\n\n  modifier onlySeller(uint _id) {\n    Escrow memory escrow = escrows[_id];\n    require(msg.sender == escrow.seller);\n    _;\n  }\n\n  modifier requireBalance(uint _id) {\n    Escrow memory escrow = escrows[_id];\n    require(escrow.balance > 0);\n    _;\n  }\n\n  function setFee(uint _fee) public onlyOwner {\n    fee = _fee;\n  }\n\n  function _addNewEscrow(address _buyer, address _seller, uint _balance, uint _status) internal returns (uint) {\n    uint id = escrows.push(Escrow(now, _buyer, _seller, _balance, _status));\n    escrowCountByOwner[msg.sender]++;\n    return id;\n  }\n}\n",
  "sourcePath": "/Users/KimSeokjun/Development/descro/contracts/DescroHelper.sol",
  "compiler": {
    "name": "solc",
    "version": "0.4.24+commit.e67f0147.Emscripten.clang"
  },
  "schemaVersion": "2.0.1",
  "updatedAt": "2018-07-02T12:53:54.963Z"
}