{
  "contractName": "Descro",
  "abi": [
    {
      "constant": true,
      "inputs": [
        {
          "name": "",
          "type": "uint256"
        }
      ],
      "name": "escrows",
      "outputs": [
        {
          "name": "createdAt",
          "type": "uint256"
        },
        {
          "name": "buyer",
          "type": "address"
        },
        {
          "name": "seller",
          "type": "address"
        },
        {
          "name": "balance",
          "type": "uint256"
        },
        {
          "name": "status",
          "type": "uint256"
        }
      ],
      "payable": false,
      "stateMutability": "view",
      "type": "function"
    },
    {
      "constant": false,
      "inputs": [
        {
          "name": "_fee",
          "type": "uint256"
        }
      ],
      "name": "setFee",
      "outputs": [],
      "payable": false,
      "stateMutability": "nonpayable",
      "type": "function"
    },
    {
      "constant": false,
      "inputs": [],
      "name": "renounceOwnership",
      "outputs": [],
      "payable": false,
      "stateMutability": "nonpayable",
      "type": "function"
    },
    {
      "constant": true,
      "inputs": [],
      "name": "owner",
      "outputs": [
        {
          "name": "",
          "type": "address"
        }
      ],
      "payable": false,
      "stateMutability": "view",
      "type": "function"
    },
    {
      "constant": true,
      "inputs": [],
      "name": "fee",
      "outputs": [
        {
          "name": "",
          "type": "uint256"
        }
      ],
      "payable": false,
      "stateMutability": "view",
      "type": "function"
    },
    {
      "constant": false,
      "inputs": [
        {
          "name": "_newOwner",
          "type": "address"
        }
      ],
      "name": "transferOwnership",
      "outputs": [],
      "payable": false,
      "stateMutability": "nonpayable",
      "type": "function"
    },
    {
      "anonymous": false,
      "inputs": [
        {
          "indexed": false,
          "name": "buyer",
          "type": "address"
        },
        {
          "indexed": false,
          "name": "seller",
          "type": "address"
        },
        {
          "indexed": false,
          "name": "escrowId",
          "type": "uint256"
        },
        {
          "indexed": false,
          "name": "balance",
          "type": "uint256"
        }
      ],
      "name": "NewEscrow",
      "type": "event"
    },
    {
      "anonymous": false,
      "inputs": [
        {
          "indexed": true,
          "name": "previousOwner",
          "type": "address"
        }
      ],
      "name": "OwnershipRenounced",
      "type": "event"
    },
    {
      "anonymous": false,
      "inputs": [
        {
          "indexed": true,
          "name": "previousOwner",
          "type": "address"
        },
        {
          "indexed": true,
          "name": "newOwner",
          "type": "address"
        }
      ],
      "name": "OwnershipTransferred",
      "type": "event"
    },
    {
      "constant": false,
      "inputs": [
        {
          "name": "_buyer",
          "type": "address"
        },
        {
          "name": "_seller",
          "type": "address"
        }
      ],
      "name": "createNewEscrow",
      "outputs": [],
      "payable": false,
      "stateMutability": "nonpayable",
      "type": "function"
    },
    {
      "constant": false,
      "inputs": [
        {
          "name": "_seller",
          "type": "address"
        }
      ],
      "name": "createNewEscrowWithDeposit",
      "outputs": [],
      "payable": true,
      "stateMutability": "payable",
      "type": "function"
    },
    {
      "constant": false,
      "inputs": [
        {
          "name": "_id",
          "type": "uint256"
        }
      ],
      "name": "deposit",
      "outputs": [],
      "payable": true,
      "stateMutability": "payable",
      "type": "function"
    },
    {
      "constant": false,
      "inputs": [
        {
          "name": "_id",
          "type": "uint256"
        }
      ],
      "name": "sendProduct",
      "outputs": [],
      "payable": false,
      "stateMutability": "nonpayable",
      "type": "function"
    },
    {
      "constant": false,
      "inputs": [
        {
          "name": "_id",
          "type": "uint256"
        }
      ],
      "name": "approve",
      "outputs": [],
      "payable": false,
      "stateMutability": "nonpayable",
      "type": "function"
    },
    {
      "constant": false,
      "inputs": [
        {
          "name": "_id",
          "type": "uint256"
        }
      ],
      "name": "cancel",
      "outputs": [],
      "payable": false,
      "stateMutability": "nonpayable",
      "type": "function"
    },
    {
      "constant": false,
      "inputs": [
        {
          "name": "_id",
          "type": "uint256"
        }
      ],
      "name": "withdraw",
      "outputs": [],
      "payable": false,
      "stateMutability": "nonpayable",
      "type": "function"
    },
    {
      "constant": false,
      "inputs": [
        {
          "name": "_id",
          "type": "uint256"
        }
      ],
      "name": "refund",
      "outputs": [],
      "payable": false,
      "stateMutability": "nonpayable",
      "type": "function"
    },
    {
      "constant": true,
      "inputs": [
        {
          "name": "_id",
          "type": "uint256"
        }
      ],
      "name": "getBalanceByEscrowId",
      "outputs": [
        {
          "name": "",
          "type": "uint256"
        }
      ],
      "payable": false,
      "stateMutability": "view",
      "type": "function"
    },
    {
      "constant": true,
      "inputs": [
        {
          "name": "_buyer",
          "type": "address"
        }
      ],
      "name": "getEscrowsByBuyer",
      "outputs": [
        {
          "name": "",
          "type": "uint256[]"
        }
      ],
      "payable": false,
      "stateMutability": "view",
      "type": "function"
    }
  ],
  "bytecode": "0x6080604052655af3107a4000600155336000806101000a81548173ffffffffffffffffffffffffffffffffffffffff021916908373ffffffffffffffffffffffffffffffffffffffff1602179055506119988061005d6000396000f3006080604052600436106100e6576000357c0100000000000000000000000000000000000000000000000000000000900463ffffffff168063012f52ee146100eb57806324df201e146101a0578063278ecde1146101cd5780632e1a7d4d146101fa57806340e58ee5146102275780634f2996ab1461025457806369fe0e2d14610295578063715018a6146102c25780638da5cb5b146102d9578063a2610b5314610330578063b6b55f2514610366578063b759f95414610386578063caa68a51146103b3578063ddca3f431461044b578063e39c792f14610476578063f2fde38b146104d9575b600080fd5b3480156100f757600080fd5b506101166004803603810190808035906020019092919050505061051c565b604051808681526020018573ffffffffffffffffffffffffffffffffffffffff1673ffffffffffffffffffffffffffffffffffffffff1681526020018473ffffffffffffffffffffffffffffffffffffffff1673ffffffffffffffffffffffffffffffffffffffff1681526020018381526020018281526020019550505050505060405180910390f35b3480156101ac57600080fd5b506101cb600480360381019080803590602001909291905050506105a1565b005b3480156101d957600080fd5b506101f86004803603810190808035906020019092919050505061073a565b005b34801561020657600080fd5b5061022560048036038101908080359060200190929190505050610a42565b005b34801561023357600080fd5b5061025260048036038101908080359060200190929190505050610d53565b005b34801561026057600080fd5b5061027f60048036038101908080359060200190929190505050610f0e565b6040518082815260200191505060405180910390f35b3480156102a157600080fd5b506102c060048036038101908080359060200190929190505050610f38565b005b3480156102ce57600080fd5b506102d7610f9d565b005b3480156102e557600080fd5b506102ee61109f565b604051808273ffffffffffffffffffffffffffffffffffffffff1673ffffffffffffffffffffffffffffffffffffffff16815260200191505060405180910390f35b610364600480360381019080803573ffffffffffffffffffffffffffffffffffffffff1690602001909291905050506110c4565b005b610384600480360381019080803590602001909291905050506111a8565b005b34801561039257600080fd5b506103b1600480360381019080803590602001909291905050506112df565b005b3480156103bf57600080fd5b506103f4600480360381019080803573ffffffffffffffffffffffffffffffffffffffff169060200190929190505050611479565b6040518080602001828103825283818151815260200191508051906020019060200280838360005b8381101561043757808201518184015260208101905061041c565b505050509050019250505060405180910390f35b34801561045757600080fd5b506104606115b8565b6040518082815260200191505060405180910390f35b34801561048257600080fd5b506104d7600480360381019080803573ffffffffffffffffffffffffffffffffffffffff169060200190929190803573ffffffffffffffffffffffffffffffffffffffff1690602001909291905050506115be565b005b3480156104e557600080fd5b5061051a600480360381019080803573ffffffffffffffffffffffffffffffffffffffff169060200190929190505050611620565b005b60028181548110151561052b57fe5b90600052602060002090600502016000915090508060000154908060010160009054906101000a900473ffffffffffffffffffffffffffffffffffffffff16908060020160009054906101000a900473ffffffffffffffffffffffffffffffffffffffff16908060030154908060040154905085565b806105aa611910565b6002828154811015156105b957fe5b906000526020600020906005020160a06040519081016040529081600082015481526020016001820160009054906101000a900473ffffffffffffffffffffffffffffffffffffffff1673ffffffffffffffffffffffffffffffffffffffff1673ffffffffffffffffffffffffffffffffffffffff1681526020016002820160009054906101000a900473ffffffffffffffffffffffffffffffffffffffff1673ffffffffffffffffffffffffffffffffffffffff1673ffffffffffffffffffffffffffffffffffffffff168152602001600382015481526020016004820154815250509050806040015173ffffffffffffffffffffffffffffffffffffffff163373ffffffffffffffffffffffffffffffffffffffff161415156106dd57600080fd5b826001806002838154811015156106f057fe5b90600052602060002090600502016004015414151561070e57600080fd5b6002808681548110151561071e57fe5b9060005260206000209060050201600401819055505050505050565b600081610745611910565b60028281548110151561075457fe5b906000526020600020906005020160a06040519081016040529081600082015481526020016001820160009054906101000a900473ffffffffffffffffffffffffffffffffffffffff1673ffffffffffffffffffffffffffffffffffffffff1673ffffffffffffffffffffffffffffffffffffffff1681526020016002820160009054906101000a900473ffffffffffffffffffffffffffffffffffffffff1673ffffffffffffffffffffffffffffffffffffffff1673ffffffffffffffffffffffffffffffffffffffff168152602001600382015481526020016004820154815250509050806020015173ffffffffffffffffffffffffffffffffffffffff163373ffffffffffffffffffffffffffffffffffffffff1614151561087857600080fd5b83610881611910565b60028281548110151561089057fe5b906000526020600020906005020160a06040519081016040529081600082015481526020016001820160009054906101000a900473ffffffffffffffffffffffffffffffffffffffff1673ffffffffffffffffffffffffffffffffffffffff1673ffffffffffffffffffffffffffffffffffffffff1681526020016002820160009054906101000a900473ffffffffffffffffffffffffffffffffffffffff1673ffffffffffffffffffffffffffffffffffffffff1673ffffffffffffffffffffffffffffffffffffffff1681526020016003820154815260200160048201548152505090506000816060015111151561098957600080fd5b8560048060028381548110151561099c57fe5b9060005260206000209060050201600401541415156109ba57600080fd5b6002888154811015156109c957fe5b9060005260206000209060050201965060008760030181905550600687600401819055503373ffffffffffffffffffffffffffffffffffffffff166108fc88600301549081150290604051600060405180830381858888f19350505050158015610a37573d6000803e3d6000fd5b505050505050505050565b60008082610a4e611910565b600282815481101515610a5d57fe5b906000526020600020906005020160a06040519081016040529081600082015481526020016001820160009054906101000a900473ffffffffffffffffffffffffffffffffffffffff1673ffffffffffffffffffffffffffffffffffffffff1673ffffffffffffffffffffffffffffffffffffffff1681526020016002820160009054906101000a900473ffffffffffffffffffffffffffffffffffffffff1673ffffffffffffffffffffffffffffffffffffffff1673ffffffffffffffffffffffffffffffffffffffff168152602001600382015481526020016004820154815250509050806040015173ffffffffffffffffffffffffffffffffffffffff163373ffffffffffffffffffffffffffffffffffffffff16141515610b8157600080fd5b84610b8a611910565b600282815481101515610b9957fe5b906000526020600020906005020160a06040519081016040529081600082015481526020016001820160009054906101000a900473ffffffffffffffffffffffffffffffffffffffff1673ffffffffffffffffffffffffffffffffffffffff1673ffffffffffffffffffffffffffffffffffffffff1681526020016002820160009054906101000a900473ffffffffffffffffffffffffffffffffffffffff1673ffffffffffffffffffffffffffffffffffffffff1673ffffffffffffffffffffffffffffffffffffffff16815260200160038201548152602001600482015481525050905060008160600151111515610c9257600080fd5b86600380600283815481101515610ca557fe5b906000526020600020906005020160040154141515610cc357600080fd5b600289815481101515610cd257fe5b90600052602060002090600502019750600154886003015403965060008860030181905550600588600401819055503373ffffffffffffffffffffffffffffffffffffffff166108fc889081150290604051600060405180830381858888f19350505050158015610d47573d6000803e3d6000fd5b50505050505050505050565b600081610d5e611910565b600282815481101515610d6d57fe5b906000526020600020906005020160a06040519081016040529081600082015481526020016001820160009054906101000a900473ffffffffffffffffffffffffffffffffffffffff1673ffffffffffffffffffffffffffffffffffffffff1673ffffffffffffffffffffffffffffffffffffffff1681526020016002820160009054906101000a900473ffffffffffffffffffffffffffffffffffffffff1673ffffffffffffffffffffffffffffffffffffffff1673ffffffffffffffffffffffffffffffffffffffff168152602001600382015481526020016004820154815250509050806020015173ffffffffffffffffffffffffffffffffffffffff163373ffffffffffffffffffffffffffffffffffffffff161480610ec05750806040015173ffffffffffffffffffffffffffffffffffffffff163373ffffffffffffffffffffffffffffffffffffffff16145b1515610ecb57600080fd5b600284815481101515610eda57fe5b906000526020600020906005020192506001836004015411151515610efe57600080fd5b6004836004018190555050505050565b6000600282815481101515610f1f57fe5b9060005260206000209060050201600301549050919050565b6000809054906101000a900473ffffffffffffffffffffffffffffffffffffffff1673ffffffffffffffffffffffffffffffffffffffff163373ffffffffffffffffffffffffffffffffffffffff16141515610f9357600080fd5b8060018190555050565b6000809054906101000a900473ffffffffffffffffffffffffffffffffffffffff1673ffffffffffffffffffffffffffffffffffffffff163373ffffffffffffffffffffffffffffffffffffffff16141515610ff857600080fd5b6000809054906101000a900473ffffffffffffffffffffffffffffffffffffffff1673ffffffffffffffffffffffffffffffffffffffff167ff8df31144d9c2f0f6b59d69b8b98abd5459d07f2742c4df920b25aae33c6482060405160405180910390a260008060006101000a81548173ffffffffffffffffffffffffffffffffffffffff021916908373ffffffffffffffffffffffffffffffffffffffff160217905550565b6000809054906101000a900473ffffffffffffffffffffffffffffffffffffffff1681565b60008160008173ffffffffffffffffffffffffffffffffffffffff16141515156110ed57600080fd5b6110fa3384346001611687565b91507f8f887f7ce980b2599e5c556b8137cd1388b84b8e85ec480731fa846b54bbc63333848434604051808573ffffffffffffffffffffffffffffffffffffffff1673ffffffffffffffffffffffffffffffffffffffff1681526020018473ffffffffffffffffffffffffffffffffffffffff1673ffffffffffffffffffffffffffffffffffffffff16815260200183815260200182815260200194505050505060405180910390a1505050565b6000600154341115156111ba57600080fd5b6002828154811015156111c957fe5b90600052602060002090600502019050348160030181905550600181600401819055507f8f887f7ce980b2599e5c556b8137cd1388b84b8e85ec480731fa846b54bbc6338160010160009054906101000a900473ffffffffffffffffffffffffffffffffffffffff168260020160009054906101000a900473ffffffffffffffffffffffffffffffffffffffff168434604051808573ffffffffffffffffffffffffffffffffffffffff1673ffffffffffffffffffffffffffffffffffffffff1681526020018473ffffffffffffffffffffffffffffffffffffffff1673ffffffffffffffffffffffffffffffffffffffff16815260200183815260200182815260200194505050505060405180910390a15050565b806112e8611910565b6002828154811015156112f757fe5b906000526020600020906005020160a06040519081016040529081600082015481526020016001820160009054906101000a900473ffffffffffffffffffffffffffffffffffffffff1673ffffffffffffffffffffffffffffffffffffffff1673ffffffffffffffffffffffffffffffffffffffff1681526020016002820160009054906101000a900473ffffffffffffffffffffffffffffffffffffffff1673ffffffffffffffffffffffffffffffffffffffff1673ffffffffffffffffffffffffffffffffffffffff168152602001600382015481526020016004820154815250509050806020015173ffffffffffffffffffffffffffffffffffffffff163373ffffffffffffffffffffffffffffffffffffffff1614151561141b57600080fd5b8260028060028381548110151561142e57fe5b90600052602060002090600502016004015414151561144c57600080fd5b600360028681548110151561145d57fe5b9060005260206000209060050201600401819055505050505050565b606080600080600360008673ffffffffffffffffffffffffffffffffffffffff1673ffffffffffffffffffffffffffffffffffffffff168152602001908152602001600020546040519080825280602002602001820160405280156114ed5781602001602082028038833980820191505090505b50925060009150600090505b6002805490508110156115ad578473ffffffffffffffffffffffffffffffffffffffff1660028281548110151561152c57fe5b906000526020600020906005020160010160009054906101000a900473ffffffffffffffffffffffffffffffffffffffff1673ffffffffffffffffffffffffffffffffffffffff1614156115a05780838381518110151561158957fe5b906020019060200201818152505081806001019250505b80806001019150506114f9565b829350505050919050565b60015481565b8160008173ffffffffffffffffffffffffffffffffffffffff16141515156115e557600080fd5b8160008173ffffffffffffffffffffffffffffffffffffffff161415151561160c57600080fd5b6116198484600080611687565b5050505050565b6000809054906101000a900473ffffffffffffffffffffffffffffffffffffffff1673ffffffffffffffffffffffffffffffffffffffff163373ffffffffffffffffffffffffffffffffffffffff1614151561167b57600080fd5b61168481611816565b50565b600080600260a0604051908101604052804281526020018873ffffffffffffffffffffffffffffffffffffffff1681526020018773ffffffffffffffffffffffffffffffffffffffff16815260200186815260200185815250908060018154018082558091505090600182039060005260206000209060050201600090919290919091506000820151816000015560208201518160010160006101000a81548173ffffffffffffffffffffffffffffffffffffffff021916908373ffffffffffffffffffffffffffffffffffffffff16021790555060408201518160020160006101000a81548173ffffffffffffffffffffffffffffffffffffffff021916908373ffffffffffffffffffffffffffffffffffffffff160217905550606082015181600301556080820151816004015550509050600360003373ffffffffffffffffffffffffffffffffffffffff1673ffffffffffffffffffffffffffffffffffffffff1681526020019081526020016000206000815480929190600101919050555080915050949350505050565b600073ffffffffffffffffffffffffffffffffffffffff168173ffffffffffffffffffffffffffffffffffffffff161415151561185257600080fd5b8073ffffffffffffffffffffffffffffffffffffffff166000809054906101000a900473ffffffffffffffffffffffffffffffffffffffff1673ffffffffffffffffffffffffffffffffffffffff167f8be0079c531659141344cd1fd0a4f28419497f9722a3daafe3b4186f6b6457e060405160405180910390a3806000806101000a81548173ffffffffffffffffffffffffffffffffffffffff021916908373ffffffffffffffffffffffffffffffffffffffff16021790555050565b60a06040519081016040528060008152602001600073ffffffffffffffffffffffffffffffffffffffff168152602001600073ffffffffffffffffffffffffffffffffffffffff168152602001600081526020016000815250905600a165627a7a723058203e5992ae0cbe35316b375f834602dde494e2b06c57a92b0628a25d8c2f870cea0029",
  "source": "pragma solidity ^0.4.23;\n\nimport \"./DescroHelper.sol\";\n\ncontract Descro is DescroHelper {\n  function createNewEscrow(address _buyer, address _seller) external onlyValidAddress(_buyer) onlyValidAddress(_seller) {\n    _addNewEscrow(_buyer, _seller, 0, CREATED);\n  }\n\n  function createNewEscrowWithDeposit(address _seller) external payable onlyValidAddress(_seller) {\n    uint id = _addNewEscrow(msg.sender, _seller, msg.value, DEPOSITED);\n\n    emit NewEscrow(msg.sender, _seller, id, msg.value);\n  }\n\n  function deposit(uint _id) external payable moreThanFee {\n    Escrow storage escrow = escrows[_id];\n    escrow.balance = msg.value;\n    escrow.status = DEPOSITED;\n\n    emit NewEscrow(escrow.buyer, escrow.seller, _id, msg.value);\n  }\n\n  function sendProduct(uint _id) external onlySeller(_id) onlyStatus(_id, DEPOSITED) {\n    escrows[_id].status = PRODUCT_SENT;\n  }\n\n  function approve(uint _id) external onlyBuyer(_id) onlyStatus(_id, PRODUCT_SENT) {\n    escrows[_id].status = APPROVED;\n  }\n\n  function cancel(uint _id) external onlyBuyerOrSeller(_id) {\n    Escrow storage escrow = escrows[_id];\n    require(escrow.status <= DEPOSITED);\n    escrow.status = CANCELLED;\n  }\n\n  function withdraw(uint _id) external onlySeller(_id) requireBalance(_id) onlyStatus(_id, APPROVED) {\n    Escrow storage escrow = escrows[_id];\n    uint amount = escrow.balance - fee;\n    escrow.balance = 0;\n    escrow.status = COMPLETED;\n    msg.sender.transfer(amount);\n  }\n\n  function refund(uint _id) external onlyBuyer(_id) requireBalance(_id) onlyStatus(_id, CANCELLED) {\n    Escrow storage escrow = escrows[_id];\n    escrow.balance = 0;\n    escrow.status = REFUNDED;\n    msg.sender.transfer(escrow.balance);\n  }\n\n  function getBalanceByEscrowId(uint _id) external view returns (uint) {\n    return escrows[_id].balance;\n  }\n\n  function getEscrowsByBuyer(address _buyer) external view returns (uint[]) {\n    uint[] memory result = new uint[](escrowCountByOwner[_buyer]);\n\n    uint counter = 0;\n    for (uint i = 0; i < escrows.length; i++) {\n      if (escrows[i].buyer == _buyer) {\n        result[counter] = i;\n        counter++;\n      }\n    }\n    return result;\n  }\n}\n",
  "sourcePath": "/Users/KimSeokjun/Development/descro/contracts/Descro.sol",
  "compiler": {
    "name": "solc",
    "version": "0.4.24+commit.e67f0147.Emscripten.clang"
  },
  "schemaVersion": "2.0.1",
  "updatedAt": "2018-07-02T12:53:54.966Z"
}