{
  "contractName": "Descro",
  "abi": [
    {
      "constant": true,
      "inputs": [
        {
          "name": "",
          "type": "uint256"
        }
      ],
      "name": "escrows",
      "outputs": [
        {
          "name": "createdAt",
          "type": "uint256"
        },
        {
          "name": "buyer",
          "type": "address"
        },
        {
          "name": "seller",
          "type": "address"
        },
        {
          "name": "balance",
          "type": "uint256"
        },
        {
          "name": "status",
          "type": "uint8"
        }
      ],
      "payable": false,
      "stateMutability": "view",
      "type": "function"
    },
    {
      "constant": true,
      "inputs": [],
      "name": "maxFee",
      "outputs": [
        {
          "name": "",
          "type": "uint256"
        }
      ],
      "payable": false,
      "stateMutability": "view",
      "type": "function"
    },
    {
      "constant": true,
      "inputs": [],
      "name": "getBalance",
      "outputs": [
        {
          "name": "",
          "type": "uint256"
        }
      ],
      "payable": false,
      "stateMutability": "view",
      "type": "function"
    },
    {
      "constant": true,
      "inputs": [],
      "name": "minFee",
      "outputs": [
        {
          "name": "",
          "type": "uint256"
        }
      ],
      "payable": false,
      "stateMutability": "view",
      "type": "function"
    },
    {
      "constant": false,
      "inputs": [
        {
          "name": "_minFee",
          "type": "uint256"
        }
      ],
      "name": "setMinFee",
      "outputs": [],
      "payable": false,
      "stateMutability": "nonpayable",
      "type": "function"
    },
    {
      "constant": false,
      "inputs": [],
      "name": "unpause",
      "outputs": [],
      "payable": false,
      "stateMutability": "nonpayable",
      "type": "function"
    },
    {
      "constant": false,
      "inputs": [
        {
          "name": "_feeRate",
          "type": "uint256"
        }
      ],
      "name": "setFeeRate",
      "outputs": [],
      "payable": false,
      "stateMutability": "nonpayable",
      "type": "function"
    },
    {
      "constant": false,
      "inputs": [
        {
          "name": "_maxFee",
          "type": "uint256"
        }
      ],
      "name": "setMaxFee",
      "outputs": [],
      "payable": false,
      "stateMutability": "nonpayable",
      "type": "function"
    },
    {
      "constant": false,
      "inputs": [],
      "name": "renounceOwnership",
      "outputs": [],
      "payable": false,
      "stateMutability": "nonpayable",
      "type": "function"
    },
    {
      "constant": false,
      "inputs": [],
      "name": "pause",
      "outputs": [],
      "payable": false,
      "stateMutability": "nonpayable",
      "type": "function"
    },
    {
      "constant": true,
      "inputs": [],
      "name": "owner",
      "outputs": [
        {
          "name": "",
          "type": "address"
        }
      ],
      "payable": false,
      "stateMutability": "view",
      "type": "function"
    },
    {
      "constant": true,
      "inputs": [],
      "name": "feeRate",
      "outputs": [
        {
          "name": "",
          "type": "uint256"
        }
      ],
      "payable": false,
      "stateMutability": "view",
      "type": "function"
    },
    {
      "constant": true,
      "inputs": [
        {
          "name": "_balance",
          "type": "uint256"
        }
      ],
      "name": "calculateFee",
      "outputs": [
        {
          "name": "",
          "type": "uint256"
        }
      ],
      "payable": false,
      "stateMutability": "view",
      "type": "function"
    },
    {
      "constant": true,
      "inputs": [],
      "name": "isPaused",
      "outputs": [
        {
          "name": "",
          "type": "bool"
        }
      ],
      "payable": false,
      "stateMutability": "view",
      "type": "function"
    },
    {
      "constant": false,
      "inputs": [],
      "name": "collect",
      "outputs": [],
      "payable": false,
      "stateMutability": "nonpayable",
      "type": "function"
    },
    {
      "constant": true,
      "inputs": [],
      "name": "totalEscrowsCount",
      "outputs": [
        {
          "name": "",
          "type": "uint256"
        }
      ],
      "payable": false,
      "stateMutability": "view",
      "type": "function"
    },
    {
      "constant": false,
      "inputs": [
        {
          "name": "_newOwner",
          "type": "address"
        }
      ],
      "name": "transferOwnership",
      "outputs": [],
      "payable": false,
      "stateMutability": "nonpayable",
      "type": "function"
    },
    {
      "anonymous": false,
      "inputs": [
        {
          "indexed": false,
          "name": "escrowId",
          "type": "uint256"
        },
        {
          "indexed": false,
          "name": "buyer",
          "type": "address"
        },
        {
          "indexed": false,
          "name": "seller",
          "type": "address"
        },
        {
          "indexed": false,
          "name": "balance",
          "type": "uint256"
        },
        {
          "indexed": false,
          "name": "status",
          "type": "uint8"
        }
      ],
      "name": "LogEscrow",
      "type": "event"
    },
    {
      "anonymous": false,
      "inputs": [
        {
          "indexed": false,
          "name": "escrowId",
          "type": "uint256"
        },
        {
          "indexed": false,
          "name": "buyer",
          "type": "address"
        },
        {
          "indexed": false,
          "name": "seller",
          "type": "address"
        },
        {
          "indexed": false,
          "name": "balance",
          "type": "uint256"
        }
      ],
      "name": "LogDepositEscrow",
      "type": "event"
    },
    {
      "anonymous": false,
      "inputs": [
        {
          "indexed": false,
          "name": "escrowId",
          "type": "uint256"
        },
        {
          "indexed": false,
          "name": "buyer",
          "type": "address"
        },
        {
          "indexed": false,
          "name": "seller",
          "type": "address"
        },
        {
          "indexed": false,
          "name": "balance",
          "type": "uint256"
        }
      ],
      "name": "LogCompleteEscrow",
      "type": "event"
    },
    {
      "anonymous": false,
      "inputs": [
        {
          "indexed": true,
          "name": "previousOwner",
          "type": "address"
        }
      ],
      "name": "OwnershipRenounced",
      "type": "event"
    },
    {
      "anonymous": false,
      "inputs": [
        {
          "indexed": true,
          "name": "previousOwner",
          "type": "address"
        },
        {
          "indexed": true,
          "name": "newOwner",
          "type": "address"
        }
      ],
      "name": "OwnershipTransferred",
      "type": "event"
    },
    {
      "constant": false,
      "inputs": [
        {
          "name": "_seller",
          "type": "address"
        }
      ],
      "name": "createNewEscrow",
      "outputs": [],
      "payable": true,
      "stateMutability": "payable",
      "type": "function"
    },
    {
      "constant": false,
      "inputs": [
        {
          "name": "_id",
          "type": "uint256"
        }
      ],
      "name": "deposit",
      "outputs": [],
      "payable": true,
      "stateMutability": "payable",
      "type": "function"
    },
    {
      "constant": false,
      "inputs": [
        {
          "name": "_id",
          "type": "uint256"
        }
      ],
      "name": "sendProduct",
      "outputs": [],
      "payable": false,
      "stateMutability": "nonpayable",
      "type": "function"
    },
    {
      "constant": false,
      "inputs": [
        {
          "name": "_id",
          "type": "uint256"
        }
      ],
      "name": "approve",
      "outputs": [],
      "payable": false,
      "stateMutability": "nonpayable",
      "type": "function"
    },
    {
      "constant": false,
      "inputs": [
        {
          "name": "_id",
          "type": "uint256"
        }
      ],
      "name": "cancel",
      "outputs": [],
      "payable": false,
      "stateMutability": "nonpayable",
      "type": "function"
    },
    {
      "constant": false,
      "inputs": [
        {
          "name": "_id",
          "type": "uint256"
        }
      ],
      "name": "withdraw",
      "outputs": [],
      "payable": false,
      "stateMutability": "nonpayable",
      "type": "function"
    },
    {
      "constant": false,
      "inputs": [
        {
          "name": "_id",
          "type": "uint256"
        }
      ],
      "name": "refund",
      "outputs": [],
      "payable": false,
      "stateMutability": "nonpayable",
      "type": "function"
    },
    {
      "constant": true,
      "inputs": [
        {
          "name": "_id",
          "type": "uint256"
        }
      ],
      "name": "getBalanceByEscrowId",
      "outputs": [
        {
          "name": "",
          "type": "uint256"
        }
      ],
      "payable": false,
      "stateMutability": "view",
      "type": "function"
    },
    {
      "constant": true,
      "inputs": [
        {
          "name": "_buyer",
          "type": "address"
        }
      ],
      "name": "getEscrowsByBuyer",
      "outputs": [
        {
          "name": "",
          "type": "uint256[]"
        }
      ],
      "payable": false,
      "stateMutability": "view",
      "type": "function"
    },
    {
      "constant": true,
      "inputs": [
        {
          "name": "_seller",
          "type": "address"
        }
      ],
      "name": "getEscrowsBySeller",
      "outputs": [
        {
          "name": "",
          "type": "uint256[]"
        }
      ],
      "payable": false,
      "stateMutability": "view",
      "type": "function"
    }
  ],
  "bytecode": "0x60806040526103e8600155655af3107a4000600255670de0b6b3a76400006003556000600460006101000a81548160ff021916908315150217905550336000806101000a81548173ffffffffffffffffffffffffffffffffffffffff021916908373ffffffffffffffffffffffffffffffffffffffff160217905550612ea28061008a6000396000f30060806040526004361061015f576000357c0100000000000000000000000000000000000000000000000000000000900463ffffffff168063012f52ee1461016457806301f59d161461021f57806312065fe01461024a57806324df201e1461027557806324ec7590146102a2578063278ecde1146102cd5780632e1a7d4d146102fa57806331ac9920146103275780633f4ba83a1461035457806340e58ee51461036b57806345596e2e146103985780634aa8162b146103c55780634f2996ab146103fb5780636a2fc00b1461043c578063710e5d2f146104d4578063715018a6146105015780638456cb59146105185780638da5cb5b1461052f578063978bbdb91461058657806399a5d747146105b1578063b187bd26146105f2578063b6b55f2514610621578063b759f95414610641578063caa68a511461066e578063e522538114610706578063eb0e7e571461071d578063f2fde38b14610748575b600080fd5b34801561017057600080fd5b5061018f6004803603810190808035906020019092919050505061078b565b604051808681526020018573ffffffffffffffffffffffffffffffffffffffff1673ffffffffffffffffffffffffffffffffffffffff1681526020018473ffffffffffffffffffffffffffffffffffffffff1673ffffffffffffffffffffffffffffffffffffffff1681526020018381526020018260ff1660ff1681526020019550505050505060405180910390f35b34801561022b57600080fd5b5061023461081d565b6040518082815260200191505060405180910390f35b34801561025657600080fd5b5061025f610823565b6040518082815260200191505060405180910390f35b34801561028157600080fd5b506102a06004803603810190808035906020019092919050505061089d565b005b3480156102ae57600080fd5b506102b7610ca6565b6040518082815260200191505060405180910390f35b3480156102d957600080fd5b506102f860048036038101908080359060200190929190505050610cac565b005b34801561030657600080fd5b5061032560048036038101908080359060200190929190505050611118565b005b34801561033357600080fd5b506103526004803603810190808035906020019092919050505061169b565b005b34801561036057600080fd5b50610369611710565b005b34801561037757600080fd5b50610396600480360381019080803590602001909291905050506117a3565b005b3480156103a457600080fd5b506103c360048036038101908080359060200190929190505050611a8b565b005b6103f9600480360381019080803573ffffffffffffffffffffffffffffffffffffffff169060200190929190505050611aff565b005b34801561040757600080fd5b5061042660048036038101908080359060200190929190505050611b9e565b6040518082815260200191505060405180910390f35b34801561044857600080fd5b5061047d600480360381019080803573ffffffffffffffffffffffffffffffffffffffff169060200190929190505050611bc8565b6040518080602001828103825283818151815260200191508051906020019060200280838360005b838110156104c05780820151818401526020810190506104a5565b505050509050019250505060405180910390f35b3480156104e057600080fd5b506104ff60048036038101908080359060200190929190505050611d07565b005b34801561050d57600080fd5b50610516611d7c565b005b34801561052457600080fd5b5061052d611e7e565b005b34801561053b57600080fd5b50610544611f12565b604051808273ffffffffffffffffffffffffffffffffffffffff1673ffffffffffffffffffffffffffffffffffffffff16815260200191505060405180910390f35b34801561059257600080fd5b5061059b611f37565b6040518082815260200191505060405180910390f35b3480156105bd57600080fd5b506105dc60048036038101908080359060200190929190505050611f3d565b6040518082815260200191505060405180910390f35b3480156105fe57600080fd5b50610607611f76565b604051808215151515815260200191505060405180910390f35b61063f60048036038101908080359060200190929190505050611f89565b005b34801561064d57600080fd5b5061066c60048036038101908080359060200190929190505050612157565b005b34801561067a57600080fd5b506106af600480360381019080803573ffffffffffffffffffffffffffffffffffffffff16906020019092919050505061243a565b6040518080602001828103825283818151815260200191508051906020019060200280838360005b838110156106f25780820151818401526020810190506106d7565b505050509050019250505060405180910390f35b34801561071257600080fd5b5061071b612579565b005b34801561072957600080fd5b50610732612655565b6040518082815260200191505060405180910390f35b34801561075457600080fd5b50610789600480360381019080803573ffffffffffffffffffffffffffffffffffffffff16906020019092919050505061265b565b005b60058181548110151561079a57fe5b90600052602060002090600502016000915090508060000154908060010160009054906101000a900473ffffffffffffffffffffffffffffffffffffffff16908060020160009054906101000a900473ffffffffffffffffffffffffffffffffffffffff16908060030154908060040160009054906101000a900460ff16905085565b60035481565b60008060009054906101000a900473ffffffffffffffffffffffffffffffffffffffff1673ffffffffffffffffffffffffffffffffffffffff163373ffffffffffffffffffffffffffffffffffffffff1614151561088057600080fd5b3073ffffffffffffffffffffffffffffffffffffffff1631905090565b806108a6612e17565b6005828154811015156108b557fe5b906000526020600020906005020160a06040519081016040529081600082015481526020016001820160009054906101000a900473ffffffffffffffffffffffffffffffffffffffff1673ffffffffffffffffffffffffffffffffffffffff1673ffffffffffffffffffffffffffffffffffffffff1681526020016002820160009054906101000a900473ffffffffffffffffffffffffffffffffffffffff1673ffffffffffffffffffffffffffffffffffffffff1673ffffffffffffffffffffffffffffffffffffffff168152602001600382015481526020016004820160009054906101000a900460ff1660ff1660ff16815250509050806040015173ffffffffffffffffffffffffffffffffffffffff163373ffffffffffffffffffffffffffffffffffffffff161415156109ec57600080fd5b826109f5612e17565b600582815481101515610a0457fe5b906000526020600020906005020160a06040519081016040529081600082015481526020016001820160009054906101000a900473ffffffffffffffffffffffffffffffffffffffff1673ffffffffffffffffffffffffffffffffffffffff1673ffffffffffffffffffffffffffffffffffffffff1681526020016002820160009054906101000a900473ffffffffffffffffffffffffffffffffffffffff1673ffffffffffffffffffffffffffffffffffffffff1673ffffffffffffffffffffffffffffffffffffffff168152602001600382015481526020016004820160009054906101000a900460ff1660ff1660ff1681525050905060008160600151111515610b1057600080fd5b84600160ff1680600583815481101515610b2657fe5b906000526020600020906005020160040160009054906101000a900460ff1660ff16141515610b5457600080fd5b6002600588815481101515610b6557fe5b906000526020600020906005020160040160006101000a81548160ff021916908360ff160217905550610c9d87600589815481101515610ba157fe5b906000526020600020906005020160a06040519081016040529081600082015481526020016001820160009054906101000a900473ffffffffffffffffffffffffffffffffffffffff1673ffffffffffffffffffffffffffffffffffffffff1673ffffffffffffffffffffffffffffffffffffffff1681526020016002820160009054906101000a900473ffffffffffffffffffffffffffffffffffffffff1673ffffffffffffffffffffffffffffffffffffffff1673ffffffffffffffffffffffffffffffffffffffff168152602001600382015481526020016004820160009054906101000a900460ff1660ff1660ff16815250506126c2565b50505050505050565b60025481565b600081610cb7612e17565b600582815481101515610cc657fe5b906000526020600020906005020160a06040519081016040529081600082015481526020016001820160009054906101000a900473ffffffffffffffffffffffffffffffffffffffff1673ffffffffffffffffffffffffffffffffffffffff1673ffffffffffffffffffffffffffffffffffffffff1681526020016002820160009054906101000a900473ffffffffffffffffffffffffffffffffffffffff1673ffffffffffffffffffffffffffffffffffffffff1673ffffffffffffffffffffffffffffffffffffffff168152602001600382015481526020016004820160009054906101000a900460ff1660ff1660ff16815250509050806020015173ffffffffffffffffffffffffffffffffffffffff163373ffffffffffffffffffffffffffffffffffffffff16141515610dfd57600080fd5b83610e06612e17565b600582815481101515610e1557fe5b906000526020600020906005020160a06040519081016040529081600082015481526020016001820160009054906101000a900473ffffffffffffffffffffffffffffffffffffffff1673ffffffffffffffffffffffffffffffffffffffff1673ffffffffffffffffffffffffffffffffffffffff1681526020016002820160009054906101000a900473ffffffffffffffffffffffffffffffffffffffff1673ffffffffffffffffffffffffffffffffffffffff1673ffffffffffffffffffffffffffffffffffffffff168152602001600382015481526020016004820160009054906101000a900460ff1660ff1660ff1681525050905060008160600151111515610f2157600080fd5b85600460ff1680600583815481101515610f3757fe5b906000526020600020906005020160040160009054906101000a900460ff1660ff16141515610f6557600080fd5b600588815481101515610f7457fe5b906000526020600020906005020196508660010160009054906101000a900473ffffffffffffffffffffffffffffffffffffffff1673ffffffffffffffffffffffffffffffffffffffff166108fc88600301549081150290604051600060405180830381858888f19350505050158015610ff2573d6000803e3d6000fd5b506000876003018190555060068760040160006101000a81548160ff021916908360ff16021790555061110e888860a06040519081016040529081600082015481526020016001820160009054906101000a900473ffffffffffffffffffffffffffffffffffffffff1673ffffffffffffffffffffffffffffffffffffffff1673ffffffffffffffffffffffffffffffffffffffff1681526020016002820160009054906101000a900473ffffffffffffffffffffffffffffffffffffffff1673ffffffffffffffffffffffffffffffffffffffff1673ffffffffffffffffffffffffffffffffffffffff168152602001600382015481526020016004820160009054906101000a900460ff1660ff1660ff16815250506126c2565b5050505050505050565b600081611123612e17565b60058281548110151561113257fe5b906000526020600020906005020160a06040519081016040529081600082015481526020016001820160009054906101000a900473ffffffffffffffffffffffffffffffffffffffff1673ffffffffffffffffffffffffffffffffffffffff1673ffffffffffffffffffffffffffffffffffffffff1681526020016002820160009054906101000a900473ffffffffffffffffffffffffffffffffffffffff1673ffffffffffffffffffffffffffffffffffffffff1673ffffffffffffffffffffffffffffffffffffffff168152602001600382015481526020016004820160009054906101000a900460ff1660ff1660ff16815250509050806040015173ffffffffffffffffffffffffffffffffffffffff163373ffffffffffffffffffffffffffffffffffffffff1614151561126957600080fd5b83611272612e17565b60058281548110151561128157fe5b906000526020600020906005020160a06040519081016040529081600082015481526020016001820160009054906101000a900473ffffffffffffffffffffffffffffffffffffffff1673ffffffffffffffffffffffffffffffffffffffff1673ffffffffffffffffffffffffffffffffffffffff1681526020016002820160009054906101000a900473ffffffffffffffffffffffffffffffffffffffff1673ffffffffffffffffffffffffffffffffffffffff1673ffffffffffffffffffffffffffffffffffffffff168152602001600382015481526020016004820160009054906101000a900460ff1660ff1660ff168152505090506000816060015111151561138d57600080fd5b85611396612e17565b6005828154811015156113a557fe5b906000526020600020906005020160a06040519081016040529081600082015481526020016001820160009054906101000a900473ffffffffffffffffffffffffffffffffffffffff1673ffffffffffffffffffffffffffffffffffffffff1673ffffffffffffffffffffffffffffffffffffffff1681526020016002820160009054906101000a900473ffffffffffffffffffffffffffffffffffffffff1673ffffffffffffffffffffffffffffffffffffffff1673ffffffffffffffffffffffffffffffffffffffff168152602001600382015481526020016004820160009054906101000a900460ff1660ff1660ff16815250509050426212750082600001510111806114bf5750600360ff16816080015160ff16145b15156114ca57600080fd5b6005888154811015156114d957fe5b906000526020600020906005020196508660020160009054906101000a900473ffffffffffffffffffffffffffffffffffffffff1673ffffffffffffffffffffffffffffffffffffffff166108fc61154a6115378a60030154611f3d565b8a6003015461291e90919063ffffffff16565b9081150290604051600060405180830381858888f19350505050158015611575573d6000803e3d6000fd5b506000876003018190555060058760040160006101000a81548160ff021916908360ff160217905550611691888860a06040519081016040529081600082015481526020016001820160009054906101000a900473ffffffffffffffffffffffffffffffffffffffff1673ffffffffffffffffffffffffffffffffffffffff1673ffffffffffffffffffffffffffffffffffffffff1681526020016002820160009054906101000a900473ffffffffffffffffffffffffffffffffffffffff1673ffffffffffffffffffffffffffffffffffffffff1673ffffffffffffffffffffffffffffffffffffffff168152602001600382015481526020016004820160009054906101000a900460ff1660ff1660ff16815250506126c2565b5050505050505050565b6000809054906101000a900473ffffffffffffffffffffffffffffffffffffffff1673ffffffffffffffffffffffffffffffffffffffff163373ffffffffffffffffffffffffffffffffffffffff161415156116f657600080fd5b6003548110151561170657600080fd5b8060028190555050565b600460009054906101000a900460ff16151561172b57600080fd5b6000809054906101000a900473ffffffffffffffffffffffffffffffffffffffff1673ffffffffffffffffffffffffffffffffffffffff163373ffffffffffffffffffffffffffffffffffffffff1614151561178657600080fd5b6000600460006101000a81548160ff021916908315150217905550565b6000816117ae612e17565b6005828154811015156117bd57fe5b906000526020600020906005020160a06040519081016040529081600082015481526020016001820160009054906101000a900473ffffffffffffffffffffffffffffffffffffffff1673ffffffffffffffffffffffffffffffffffffffff1673ffffffffffffffffffffffffffffffffffffffff1681526020016002820160009054906101000a900473ffffffffffffffffffffffffffffffffffffffff1673ffffffffffffffffffffffffffffffffffffffff1673ffffffffffffffffffffffffffffffffffffffff168152602001600382015481526020016004820160009054906101000a900460ff1660ff1660ff16815250509050806020015173ffffffffffffffffffffffffffffffffffffffff163373ffffffffffffffffffffffffffffffffffffffff1614806119235750806040015173ffffffffffffffffffffffffffffffffffffffff163373ffffffffffffffffffffffffffffffffffffffff16145b151561192e57600080fd5b60058481548110151561193d57fe5b90600052602060002090600502019250600160ff168360040160009054906101000a900460ff1660ff161115151561197457600080fd5b60048360040160006101000a81548160ff021916908360ff160217905550611a85848460a06040519081016040529081600082015481526020016001820160009054906101000a900473ffffffffffffffffffffffffffffffffffffffff1673ffffffffffffffffffffffffffffffffffffffff1673ffffffffffffffffffffffffffffffffffffffff1681526020016002820160009054906101000a900473ffffffffffffffffffffffffffffffffffffffff1673ffffffffffffffffffffffffffffffffffffffff1673ffffffffffffffffffffffffffffffffffffffff168152602001600382015481526020016004820160009054906101000a900460ff1660ff1660ff16815250506126c2565b50505050565b6000809054906101000a900473ffffffffffffffffffffffffffffffffffffffff1673ffffffffffffffffffffffffffffffffffffffff163373ffffffffffffffffffffffffffffffffffffffff16141515611ae657600080fd5b600181111515611af557600080fd5b8060018190555050565b60025434111515611b0f57600080fd5b600460009054906101000a900460ff16151515611b2b57600080fd5b8060008173ffffffffffffffffffffffffffffffffffffffff1614151515611b5257600080fd5b8173ffffffffffffffffffffffffffffffffffffffff163373ffffffffffffffffffffffffffffffffffffffff1614151515611b8d57600080fd5b611b9a3383346001612937565b5050565b6000600582815481101515611baf57fe5b9060005260206000209060050201600301549050919050565b606080600080600860008673ffffffffffffffffffffffffffffffffffffffff1673ffffffffffffffffffffffffffffffffffffffff16815260200190815260200160002054604051908082528060200260200182016040528015611c3c5781602001602082028038833980820191505090505b50925060009150600090505b600580549050811015611cfc578473ffffffffffffffffffffffffffffffffffffffff16600582815481101515611c7b57fe5b906000526020600020906005020160020160009054906101000a900473ffffffffffffffffffffffffffffffffffffffff1673ffffffffffffffffffffffffffffffffffffffff161415611cef57808383815181101515611cd857fe5b906020019060200201818152505081806001019250505b8080600101915050611c48565b829350505050919050565b6000809054906101000a900473ffffffffffffffffffffffffffffffffffffffff1673ffffffffffffffffffffffffffffffffffffffff163373ffffffffffffffffffffffffffffffffffffffff16141515611d6257600080fd5b60025481111515611d7257600080fd5b8060038190555050565b6000809054906101000a900473ffffffffffffffffffffffffffffffffffffffff1673ffffffffffffffffffffffffffffffffffffffff163373ffffffffffffffffffffffffffffffffffffffff16141515611dd757600080fd5b6000809054906101000a900473ffffffffffffffffffffffffffffffffffffffff1673ffffffffffffffffffffffffffffffffffffffff167ff8df31144d9c2f0f6b59d69b8b98abd5459d07f2742c4df920b25aae33c6482060405160405180910390a260008060006101000a81548173ffffffffffffffffffffffffffffffffffffffff021916908373ffffffffffffffffffffffffffffffffffffffff160217905550565b600460009054906101000a900460ff16151515611e9a57600080fd5b6000809054906101000a900473ffffffffffffffffffffffffffffffffffffffff1673ffffffffffffffffffffffffffffffffffffffff163373ffffffffffffffffffffffffffffffffffffffff16141515611ef557600080fd5b6001600460006101000a81548160ff021916908315150217905550565b6000809054906101000a900473ffffffffffffffffffffffffffffffffffffffff1681565b60015481565b600080611f5560015484612cb990919063ffffffff16565b9050611f6e600354611f6983600254612ccf565b612ce8565b915050919050565b600460009054906101000a900460ff1681565b600081600160ff1680600583815481101515611fa157fe5b906000526020600020906005020160040160009054906101000a900460ff1660ff16141515611fcf57600080fd5b600584815481101515611fde57fe5b906000526020600020906005020192508260010160009054906101000a900473ffffffffffffffffffffffffffffffffffffffff1673ffffffffffffffffffffffffffffffffffffffff163373ffffffffffffffffffffffffffffffffffffffff1614151561204c57600080fd5b348360030160008282540192505081905550612151848460a06040519081016040529081600082015481526020016001820160009054906101000a900473ffffffffffffffffffffffffffffffffffffffff1673ffffffffffffffffffffffffffffffffffffffff1673ffffffffffffffffffffffffffffffffffffffff1681526020016002820160009054906101000a900473ffffffffffffffffffffffffffffffffffffffff1673ffffffffffffffffffffffffffffffffffffffff1673ffffffffffffffffffffffffffffffffffffffff168152602001600382015481526020016004820160009054906101000a900460ff1660ff1660ff16815250506126c2565b50505050565b80612160612e17565b60058281548110151561216f57fe5b906000526020600020906005020160a06040519081016040529081600082015481526020016001820160009054906101000a900473ffffffffffffffffffffffffffffffffffffffff1673ffffffffffffffffffffffffffffffffffffffff1673ffffffffffffffffffffffffffffffffffffffff1681526020016002820160009054906101000a900473ffffffffffffffffffffffffffffffffffffffff1673ffffffffffffffffffffffffffffffffffffffff1673ffffffffffffffffffffffffffffffffffffffff168152602001600382015481526020016004820160009054906101000a900460ff1660ff1660ff16815250509050806020015173ffffffffffffffffffffffffffffffffffffffff163373ffffffffffffffffffffffffffffffffffffffff161415156122a657600080fd5b82600260ff16806005838154811015156122bc57fe5b906000526020600020906005020160040160009054906101000a900460ff1660ff161415156122ea57600080fd5b60036005868154811015156122fb57fe5b906000526020600020906005020160040160006101000a81548160ff021916908360ff1602179055506124338560058781548110151561233757fe5b906000526020600020906005020160a06040519081016040529081600082015481526020016001820160009054906101000a900473ffffffffffffffffffffffffffffffffffffffff1673ffffffffffffffffffffffffffffffffffffffff1673ffffffffffffffffffffffffffffffffffffffff1681526020016002820160009054906101000a900473ffffffffffffffffffffffffffffffffffffffff1673ffffffffffffffffffffffffffffffffffffffff1673ffffffffffffffffffffffffffffffffffffffff168152602001600382015481526020016004820160009054906101000a900460ff1660ff1660ff16815250506126c2565b5050505050565b606080600080600760008673ffffffffffffffffffffffffffffffffffffffff1673ffffffffffffffffffffffffffffffffffffffff168152602001908152602001600020546040519080825280602002602001820160405280156124ae5781602001602082028038833980820191505090505b50925060009150600090505b60058054905081101561256e578473ffffffffffffffffffffffffffffffffffffffff166005828154811015156124ed57fe5b906000526020600020906005020160010160009054906101000a900473ffffffffffffffffffffffffffffffffffffffff1673ffffffffffffffffffffffffffffffffffffffff1614156125615780838381518110151561254a57fe5b906020019060200201818152505081806001019250505b80806001019150506124ba565b829350505050919050565b6000809054906101000a900473ffffffffffffffffffffffffffffffffffffffff1673ffffffffffffffffffffffffffffffffffffffff163373ffffffffffffffffffffffffffffffffffffffff161415156125d457600080fd5b6000809054906101000a900473ffffffffffffffffffffffffffffffffffffffff1673ffffffffffffffffffffffffffffffffffffffff166108fc3073ffffffffffffffffffffffffffffffffffffffff16319081150290604051600060405180830381858888f19350505050158015612652573d6000803e3d6000fd5b50565b60065481565b6000809054906101000a900473ffffffffffffffffffffffffffffffffffffffff1673ffffffffffffffffffffffffffffffffffffffff163373ffffffffffffffffffffffffffffffffffffffff161415156126b657600080fd5b6126bf81612d01565b50565b7f801034588d37f75ccfadb2f9a9ae39d2be61600510b36f08559b8ffb305ae4d7828260200151836040015184606001518560800151604051808681526020018573ffffffffffffffffffffffffffffffffffffffff1673ffffffffffffffffffffffffffffffffffffffff1681526020018473ffffffffffffffffffffffffffffffffffffffff1673ffffffffffffffffffffffffffffffffffffffff1681526020018381526020018260ff1660ff1681526020019550505050505060405180910390a1600160ff16816080015160ff161415612852577f7036bc13c07de78f61eb6cd7116368c8032f8153583c2fc0c60ce17c0fab2cf582826020015183604001518460600151604051808581526020018473ffffffffffffffffffffffffffffffffffffffff1673ffffffffffffffffffffffffffffffffffffffff1681526020018373ffffffffffffffffffffffffffffffffffffffff1673ffffffffffffffffffffffffffffffffffffffff16815260200182815260200194505050505060405180910390a161291a565b600560ff16816080015160ff161415612919577fde7998ef827c3f7ec152ef801a84155d696eaafbe6e0e0f61ddd9dad90a9684b82826020015183604001518460600151604051808581526020018473ffffffffffffffffffffffffffffffffffffffff1673ffffffffffffffffffffffffffffffffffffffff1681526020018373ffffffffffffffffffffffffffffffffffffffff1673ffffffffffffffffffffffffffffffffffffffff16815260200182815260200194505050505060405180910390a15b5b5050565b600082821115151561292c57fe5b818303905092915050565b60008373ffffffffffffffffffffffffffffffffffffffff168573ffffffffffffffffffffffffffffffffffffffff161415151561297457600080fd5b600560a0604051908101604052804281526020018773ffffffffffffffffffffffffffffffffffffffff1681526020018673ffffffffffffffffffffffffffffffffffffffff1681526020018581526020018460ff16815250908060018154018082558091505090600182039060005260206000209060050201600090919290919091506000820151816000015560208201518160010160006101000a81548173ffffffffffffffffffffffffffffffffffffffff021916908373ffffffffffffffffffffffffffffffffffffffff16021790555060408201518160020160006101000a81548173ffffffffffffffffffffffffffffffffffffffff021916908373ffffffffffffffffffffffffffffffffffffffff1602179055506060820151816003015560808201518160040160006101000a81548160ff021916908360ff16021790555050509050600660008154809291906001019190505550612b246001600760008873ffffffffffffffffffffffffffffffffffffffff1673ffffffffffffffffffffffffffffffffffffffff16815260200190815260200160002054612dfb90919063ffffffff16565b600760008773ffffffffffffffffffffffffffffffffffffffff1673ffffffffffffffffffffffffffffffffffffffff16815260200190815260200160002081905550612bba6001600860008773ffffffffffffffffffffffffffffffffffffffff1673ffffffffffffffffffffffffffffffffffffffff16815260200190815260200160002054612dfb90919063ffffffff16565b600860008673ffffffffffffffffffffffffffffffffffffffff1673ffffffffffffffffffffffffffffffffffffffff168152602001908152602001600020819055507f801034588d37f75ccfadb2f9a9ae39d2be61600510b36f08559b8ffb305ae4d78186868686604051808681526020018573ffffffffffffffffffffffffffffffffffffffff1673ffffffffffffffffffffffffffffffffffffffff1681526020018473ffffffffffffffffffffffffffffffffffffffff1673ffffffffffffffffffffffffffffffffffffffff1681526020018381526020018260ff1660ff1681526020019550505050505060405180910390a15050505050565b60008183811515612cc657fe5b04905092915050565b6000818311612cde5781612ce0565b825b905092915050565b6000818310612cf75781612cf9565b825b905092915050565b600073ffffffffffffffffffffffffffffffffffffffff168173ffffffffffffffffffffffffffffffffffffffff1614151515612d3d57600080fd5b8073ffffffffffffffffffffffffffffffffffffffff166000809054906101000a900473ffffffffffffffffffffffffffffffffffffffff1673ffffffffffffffffffffffffffffffffffffffff167f8be0079c531659141344cd1fd0a4f28419497f9722a3daafe3b4186f6b6457e060405160405180910390a3806000806101000a81548173ffffffffffffffffffffffffffffffffffffffff021916908373ffffffffffffffffffffffffffffffffffffffff16021790555050565b60008183019050828110151515612e0e57fe5b80905092915050565b60a06040519081016040528060008152602001600073ffffffffffffffffffffffffffffffffffffffff168152602001600073ffffffffffffffffffffffffffffffffffffffff16815260200160008152602001600060ff16815250905600a165627a7a72305820ffd0bc9cb681c5b00071a7e7c2b435e45ea45fa9ca79c97847036cfbc282e4160029",
  "source": "pragma solidity ^0.4.23;\n\nimport \"openzeppelin-solidity/contracts/math/SafeMath.sol\";\n\nimport \"./Business.sol\";\nimport \"./Escrows.sol\";\n\n/**\n * @title Descro\n * @dev Mostly public funciton definition related to escrow\n */\ncontract Descro is Business, Escrows {\n  using SafeMath for uint256;\n\n  function createNewEscrow(address _seller) external payable moreThanFee onlyInService onlyValidAddress(_seller) {\n    require(msg.sender != _seller);\n    _addNewEscrow(msg.sender, _seller, msg.value, DEPOSITED);\n  }\n\n  function deposit(uint _id) external payable onlyStatus(_id, DEPOSITED) {\n    Escrow storage escrow = escrows[_id];\n    require(msg.sender == escrow.buyer);\n    escrow.balance += msg.value;\n    logEscrow(_id, escrow);\n  }\n\n  function sendProduct(uint _id) external onlySeller(_id) requireBalance(_id) onlyStatus(_id, DEPOSITED) {\n    escrows[_id].status = PRODUCT_SENT;\n\n    logEscrow(_id, escrows[_id]);\n  }\n\n  function approve(uint _id) external onlyBuyer(_id) onlyStatus(_id, PRODUCT_SENT) {\n    escrows[_id].status = APPROVED;\n\n    logEscrow(_id, escrows[_id]);\n  }\n\n  function cancel(uint _id) external onlyBuyerOrSeller(_id) {\n    Escrow storage escrow = escrows[_id];\n    require(escrow.status <= DEPOSITED);\n    escrow.status = CANCELLED;\n\n    logEscrow(_id, escrow);\n  }\n\n  function withdraw(uint _id) external onlySeller(_id) requireBalance(_id) onlyWithdrawable(_id) {\n    Escrow storage escrow = escrows[_id];\n    escrow.seller.transfer(escrow.balance.sub(calculateFee(escrow.balance)));\n    escrow.balance = 0;\n    escrow.status = COMPLETED;\n\n    logEscrow(_id, escrow);\n  }\n\n  function refund(uint _id) external onlyBuyer(_id) requireBalance(_id) onlyStatus(_id, CANCELLED) {\n    Escrow storage escrow = escrows[_id];\n    escrow.buyer.transfer(escrow.balance);\n    escrow.balance = 0;\n    escrow.status = REFUNDED;\n\n    logEscrow(_id, escrow);\n  }\n\n  function getBalanceByEscrowId(uint _id) external view returns (uint) {\n    return escrows[_id].balance;\n  }\n\n  function getEscrowsByBuyer(address _buyer) external view returns (uint[]) {\n    uint[] memory result = new uint[](escrowCountByBuyer[_buyer]);\n\n    uint counter = 0;\n    for (uint i = 0; i < escrows.length; i++) {\n      if (escrows[i].buyer == _buyer) {\n        result[counter] = i;\n        counter++;\n      }\n    }\n    return result;\n  }\n\n  function getEscrowsBySeller(address _seller) external view returns (uint[]) {\n    uint[] memory result = new uint[](escrowCountBySeller[_seller]);\n\n    uint counter = 0;\n    for (uint i = 0; i < escrows.length; i++) {\n      if (escrows[i].seller == _seller) {\n        result[counter] = i;\n        counter++;\n      }\n    }\n    return result;\n  }\n}\n",
  "sourcePath": "/Users/colus001/Development/descro/contracts/Descro.sol",
  "compiler": {
    "name": "solc",
    "version": "0.4.24+commit.e67f0147.Emscripten.clang"
  },
  "schemaVersion": "2.0.1",
  "updatedAt": "2018-08-17T14:06:23.586Z"
}