{
  "contractName": "Descro",
  "abi": [
    {
      "constant": true,
      "inputs": [
        {
          "name": "",
          "type": "uint256"
        }
      ],
      "name": "escrows",
      "outputs": [
        {
          "name": "createdAt",
          "type": "uint256"
        },
        {
          "name": "buyer",
          "type": "address"
        },
        {
          "name": "seller",
          "type": "address"
        },
        {
          "name": "balance",
          "type": "uint256"
        },
        {
          "name": "status",
          "type": "uint8"
        }
      ],
      "payable": false,
      "stateMutability": "view",
      "type": "function"
    },
    {
      "constant": true,
      "inputs": [],
      "name": "maxFee",
      "outputs": [
        {
          "name": "",
          "type": "uint256"
        }
      ],
      "payable": false,
      "stateMutability": "view",
      "type": "function"
    },
    {
      "constant": true,
      "inputs": [],
      "name": "getBalance",
      "outputs": [
        {
          "name": "",
          "type": "uint256"
        }
      ],
      "payable": false,
      "stateMutability": "view",
      "type": "function"
    },
    {
      "constant": true,
      "inputs": [],
      "name": "minFee",
      "outputs": [
        {
          "name": "",
          "type": "uint256"
        }
      ],
      "payable": false,
      "stateMutability": "view",
      "type": "function"
    },
    {
      "constant": false,
      "inputs": [
        {
          "name": "_minFee",
          "type": "uint256"
        }
      ],
      "name": "setMinFee",
      "outputs": [],
      "payable": false,
      "stateMutability": "nonpayable",
      "type": "function"
    },
    {
      "constant": false,
      "inputs": [],
      "name": "unpause",
      "outputs": [],
      "payable": false,
      "stateMutability": "nonpayable",
      "type": "function"
    },
    {
      "constant": false,
      "inputs": [
        {
          "name": "_feeRate",
          "type": "uint256"
        }
      ],
      "name": "setFeeRate",
      "outputs": [],
      "payable": false,
      "stateMutability": "nonpayable",
      "type": "function"
    },
    {
      "constant": false,
      "inputs": [
        {
          "name": "_maxFee",
          "type": "uint256"
        }
      ],
      "name": "setMaxFee",
      "outputs": [],
      "payable": false,
      "stateMutability": "nonpayable",
      "type": "function"
    },
    {
      "constant": false,
      "inputs": [],
      "name": "renounceOwnership",
      "outputs": [],
      "payable": false,
      "stateMutability": "nonpayable",
      "type": "function"
    },
    {
      "constant": false,
      "inputs": [],
      "name": "pause",
      "outputs": [],
      "payable": false,
      "stateMutability": "nonpayable",
      "type": "function"
    },
    {
      "constant": true,
      "inputs": [],
      "name": "owner",
      "outputs": [
        {
          "name": "",
          "type": "address"
        }
      ],
      "payable": false,
      "stateMutability": "view",
      "type": "function"
    },
    {
      "constant": true,
      "inputs": [],
      "name": "feeRate",
      "outputs": [
        {
          "name": "",
          "type": "uint256"
        }
      ],
      "payable": false,
      "stateMutability": "view",
      "type": "function"
    },
    {
      "constant": true,
      "inputs": [
        {
          "name": "_balance",
          "type": "uint256"
        }
      ],
      "name": "calculateFee",
      "outputs": [
        {
          "name": "",
          "type": "uint256"
        }
      ],
      "payable": false,
      "stateMutability": "view",
      "type": "function"
    },
    {
      "constant": true,
      "inputs": [],
      "name": "isPaused",
      "outputs": [
        {
          "name": "",
          "type": "bool"
        }
      ],
      "payable": false,
      "stateMutability": "view",
      "type": "function"
    },
    {
      "constant": false,
      "inputs": [],
      "name": "collect",
      "outputs": [],
      "payable": false,
      "stateMutability": "nonpayable",
      "type": "function"
    },
    {
      "constant": false,
      "inputs": [
        {
          "name": "_newOwner",
          "type": "address"
        }
      ],
      "name": "transferOwnership",
      "outputs": [],
      "payable": false,
      "stateMutability": "nonpayable",
      "type": "function"
    },
    {
      "anonymous": false,
      "inputs": [
        {
          "indexed": false,
          "name": "escrowId",
          "type": "uint256"
        },
        {
          "indexed": false,
          "name": "buyer",
          "type": "address"
        },
        {
          "indexed": false,
          "name": "seller",
          "type": "address"
        },
        {
          "indexed": false,
          "name": "balance",
          "type": "uint256"
        },
        {
          "indexed": false,
          "name": "status",
          "type": "uint8"
        }
      ],
      "name": "LogEscrow",
      "type": "event"
    },
    {
      "anonymous": false,
      "inputs": [
        {
          "indexed": false,
          "name": "escrowId",
          "type": "uint256"
        },
        {
          "indexed": false,
          "name": "buyer",
          "type": "address"
        },
        {
          "indexed": false,
          "name": "seller",
          "type": "address"
        },
        {
          "indexed": false,
          "name": "balance",
          "type": "uint256"
        }
      ],
      "name": "LogDepositEscrow",
      "type": "event"
    },
    {
      "anonymous": false,
      "inputs": [
        {
          "indexed": false,
          "name": "escrowId",
          "type": "uint256"
        },
        {
          "indexed": false,
          "name": "buyer",
          "type": "address"
        },
        {
          "indexed": false,
          "name": "seller",
          "type": "address"
        },
        {
          "indexed": false,
          "name": "balance",
          "type": "uint256"
        }
      ],
      "name": "LogCompleteEscrow",
      "type": "event"
    },
    {
      "anonymous": false,
      "inputs": [
        {
          "indexed": true,
          "name": "previousOwner",
          "type": "address"
        }
      ],
      "name": "OwnershipRenounced",
      "type": "event"
    },
    {
      "anonymous": false,
      "inputs": [
        {
          "indexed": true,
          "name": "previousOwner",
          "type": "address"
        },
        {
          "indexed": true,
          "name": "newOwner",
          "type": "address"
        }
      ],
      "name": "OwnershipTransferred",
      "type": "event"
    },
    {
      "constant": false,
      "inputs": [
        {
          "name": "_buyer",
          "type": "address"
        },
        {
          "name": "_seller",
          "type": "address"
        }
      ],
      "name": "createNewEscrow",
      "outputs": [],
      "payable": false,
      "stateMutability": "nonpayable",
      "type": "function"
    },
    {
      "constant": false,
      "inputs": [
        {
          "name": "_seller",
          "type": "address"
        }
      ],
      "name": "depositNewEscrow",
      "outputs": [],
      "payable": true,
      "stateMutability": "payable",
      "type": "function"
    },
    {
      "constant": false,
      "inputs": [
        {
          "name": "_id",
          "type": "uint256"
        }
      ],
      "name": "deposit",
      "outputs": [],
      "payable": true,
      "stateMutability": "payable",
      "type": "function"
    },
    {
      "constant": false,
      "inputs": [
        {
          "name": "_id",
          "type": "uint256"
        }
      ],
      "name": "sendProduct",
      "outputs": [],
      "payable": false,
      "stateMutability": "nonpayable",
      "type": "function"
    },
    {
      "constant": false,
      "inputs": [
        {
          "name": "_id",
          "type": "uint256"
        }
      ],
      "name": "approve",
      "outputs": [],
      "payable": false,
      "stateMutability": "nonpayable",
      "type": "function"
    },
    {
      "constant": false,
      "inputs": [
        {
          "name": "_id",
          "type": "uint256"
        }
      ],
      "name": "cancel",
      "outputs": [],
      "payable": false,
      "stateMutability": "nonpayable",
      "type": "function"
    },
    {
      "constant": false,
      "inputs": [
        {
          "name": "_id",
          "type": "uint256"
        }
      ],
      "name": "withdraw",
      "outputs": [],
      "payable": false,
      "stateMutability": "nonpayable",
      "type": "function"
    },
    {
      "constant": false,
      "inputs": [
        {
          "name": "_id",
          "type": "uint256"
        }
      ],
      "name": "refund",
      "outputs": [],
      "payable": false,
      "stateMutability": "nonpayable",
      "type": "function"
    },
    {
      "constant": true,
      "inputs": [
        {
          "name": "_id",
          "type": "uint256"
        }
      ],
      "name": "getBalanceByEscrowId",
      "outputs": [
        {
          "name": "",
          "type": "uint256"
        }
      ],
      "payable": false,
      "stateMutability": "view",
      "type": "function"
    },
    {
      "constant": true,
      "inputs": [
        {
          "name": "_buyer",
          "type": "address"
        }
      ],
      "name": "getEscrowsByBuyer",
      "outputs": [
        {
          "name": "",
          "type": "uint256[]"
        }
      ],
      "payable": false,
      "stateMutability": "view",
      "type": "function"
    },
    {
      "constant": true,
      "inputs": [
        {
          "name": "_seller",
          "type": "address"
        }
      ],
      "name": "getEscrowsBySeller",
      "outputs": [
        {
          "name": "",
          "type": "uint256[]"
        }
      ],
      "payable": false,
      "stateMutability": "view",
      "type": "function"
    }
  ],
  "bytecode": "0x60806040526103e8600155655af3107a4000600255670de0b6b3a76400006003556000600460006101000a81548160ff021916908315150217905550336000806101000a81548173ffffffffffffffffffffffffffffffffffffffff021916908373ffffffffffffffffffffffffffffffffffffffff160217905550612eb08061008a6000396000f30060806040526004361061015f576000357c0100000000000000000000000000000000000000000000000000000000900463ffffffff168063012f52ee1461016457806301f59d161461021f57806312065fe01461024a57806324df201e1461027557806324ec7590146102a2578063278ecde1146102cd5780632e1a7d4d146102fa57806331ac9920146103275780633f4ba83a1461035457806340e58ee51461036b57806345596e2e146103985780634f2996ab146103c55780636a2fc00b14610406578063710e5d2f1461049e578063715018a6146104cb5780638456cb59146104e25780638da5cb5b146104f9578063978bbdb91461055057806399a5d7471461057b578063ab8272b1146105bc578063b187bd26146105f2578063b6b55f2514610621578063b759f95414610641578063caa68a511461066e578063e39c792f14610706578063e522538114610769578063f2fde38b14610780575b600080fd5b34801561017057600080fd5b5061018f600480360381019080803590602001909291905050506107c3565b604051808681526020018573ffffffffffffffffffffffffffffffffffffffff1673ffffffffffffffffffffffffffffffffffffffff1681526020018473ffffffffffffffffffffffffffffffffffffffff1673ffffffffffffffffffffffffffffffffffffffff1681526020018381526020018260ff1660ff1681526020019550505050505060405180910390f35b34801561022b57600080fd5b50610234610855565b6040518082815260200191505060405180910390f35b34801561025657600080fd5b5061025f61085b565b6040518082815260200191505060405180910390f35b34801561028157600080fd5b506102a0600480360381019080803590602001909291905050506108d5565b005b3480156102ae57600080fd5b506102b7610cde565b6040518082815260200191505060405180910390f35b3480156102d957600080fd5b506102f860048036038101908080359060200190929190505050610ce4565b005b34801561030657600080fd5b5061032560048036038101908080359060200190929190505050611150565b005b34801561033357600080fd5b50610352600480360381019080803590602001909291905050506116d3565b005b34801561036057600080fd5b50610369611748565b005b34801561037757600080fd5b50610396600480360381019080803590602001909291905050506117db565b005b3480156103a457600080fd5b506103c360048036038101908080359060200190929190505050611ac3565b005b3480156103d157600080fd5b506103f060048036038101908080359060200190929190505050611b37565b6040518082815260200191505060405180910390f35b34801561041257600080fd5b50610447600480360381019080803573ffffffffffffffffffffffffffffffffffffffff169060200190929190505050611b61565b6040518080602001828103825283818151815260200191508051906020019060200280838360005b8381101561048a57808201518184015260208101905061046f565b505050509050019250505060405180910390f35b3480156104aa57600080fd5b506104c960048036038101908080359060200190929190505050611ca0565b005b3480156104d757600080fd5b506104e0611d15565b005b3480156104ee57600080fd5b506104f7611e17565b005b34801561050557600080fd5b5061050e611eab565b604051808273ffffffffffffffffffffffffffffffffffffffff1673ffffffffffffffffffffffffffffffffffffffff16815260200191505060405180910390f35b34801561055c57600080fd5b50610565611ed0565b6040518082815260200191505060405180910390f35b34801561058757600080fd5b506105a660048036038101908080359060200190929190505050611ed6565b6040518082815260200191505060405180910390f35b6105f0600480360381019080803573ffffffffffffffffffffffffffffffffffffffff169060200190929190505050611f0f565b005b3480156105fe57600080fd5b50610607611f9e565b604051808215151515815260200191505060405180910390f35b61063f60048036038101908080359060200190929190505050611fb1565b005b34801561064d57600080fd5b5061066c60048036038101908080359060200190929190505050612100565b005b34801561067a57600080fd5b506106af600480360381019080803573ffffffffffffffffffffffffffffffffffffffff1690602001909291905050506123e3565b6040518080602001828103825283818151815260200191508051906020019060200280838360005b838110156106f25780820151818401526020810190506106d7565b505050509050019250505060405180910390f35b34801561071257600080fd5b50610767600480360381019080803573ffffffffffffffffffffffffffffffffffffffff169060200190929190803573ffffffffffffffffffffffffffffffffffffffff169060200190929190505050612522565b005b34801561077557600080fd5b5061077e61259f565b005b34801561078c57600080fd5b506107c1600480360381019080803573ffffffffffffffffffffffffffffffffffffffff16906020019092919050505061267b565b005b6005818154811015156107d257fe5b90600052602060002090600502016000915090508060000154908060010160009054906101000a900473ffffffffffffffffffffffffffffffffffffffff16908060020160009054906101000a900473ffffffffffffffffffffffffffffffffffffffff16908060030154908060040160009054906101000a900460ff16905085565b60035481565b60008060009054906101000a900473ffffffffffffffffffffffffffffffffffffffff1673ffffffffffffffffffffffffffffffffffffffff163373ffffffffffffffffffffffffffffffffffffffff161415156108b857600080fd5b3073ffffffffffffffffffffffffffffffffffffffff1631905090565b806108de612e25565b6005828154811015156108ed57fe5b906000526020600020906005020160a06040519081016040529081600082015481526020016001820160009054906101000a900473ffffffffffffffffffffffffffffffffffffffff1673ffffffffffffffffffffffffffffffffffffffff1673ffffffffffffffffffffffffffffffffffffffff1681526020016002820160009054906101000a900473ffffffffffffffffffffffffffffffffffffffff1673ffffffffffffffffffffffffffffffffffffffff1673ffffffffffffffffffffffffffffffffffffffff168152602001600382015481526020016004820160009054906101000a900460ff1660ff1660ff16815250509050806040015173ffffffffffffffffffffffffffffffffffffffff163373ffffffffffffffffffffffffffffffffffffffff16141515610a2457600080fd5b82610a2d612e25565b600582815481101515610a3c57fe5b906000526020600020906005020160a06040519081016040529081600082015481526020016001820160009054906101000a900473ffffffffffffffffffffffffffffffffffffffff1673ffffffffffffffffffffffffffffffffffffffff1673ffffffffffffffffffffffffffffffffffffffff1681526020016002820160009054906101000a900473ffffffffffffffffffffffffffffffffffffffff1673ffffffffffffffffffffffffffffffffffffffff1673ffffffffffffffffffffffffffffffffffffffff168152602001600382015481526020016004820160009054906101000a900460ff1660ff1660ff1681525050905060008160600151111515610b4857600080fd5b84600160ff1680600583815481101515610b5e57fe5b906000526020600020906005020160040160009054906101000a900460ff1660ff16141515610b8c57600080fd5b6002600588815481101515610b9d57fe5b906000526020600020906005020160040160006101000a81548160ff021916908360ff160217905550610cd587600589815481101515610bd957fe5b906000526020600020906005020160a06040519081016040529081600082015481526020016001820160009054906101000a900473ffffffffffffffffffffffffffffffffffffffff1673ffffffffffffffffffffffffffffffffffffffff1673ffffffffffffffffffffffffffffffffffffffff1681526020016002820160009054906101000a900473ffffffffffffffffffffffffffffffffffffffff1673ffffffffffffffffffffffffffffffffffffffff1673ffffffffffffffffffffffffffffffffffffffff168152602001600382015481526020016004820160009054906101000a900460ff1660ff1660ff16815250506126e2565b50505050505050565b60025481565b600081610cef612e25565b600582815481101515610cfe57fe5b906000526020600020906005020160a06040519081016040529081600082015481526020016001820160009054906101000a900473ffffffffffffffffffffffffffffffffffffffff1673ffffffffffffffffffffffffffffffffffffffff1673ffffffffffffffffffffffffffffffffffffffff1681526020016002820160009054906101000a900473ffffffffffffffffffffffffffffffffffffffff1673ffffffffffffffffffffffffffffffffffffffff1673ffffffffffffffffffffffffffffffffffffffff168152602001600382015481526020016004820160009054906101000a900460ff1660ff1660ff16815250509050806020015173ffffffffffffffffffffffffffffffffffffffff163373ffffffffffffffffffffffffffffffffffffffff16141515610e3557600080fd5b83610e3e612e25565b600582815481101515610e4d57fe5b906000526020600020906005020160a06040519081016040529081600082015481526020016001820160009054906101000a900473ffffffffffffffffffffffffffffffffffffffff1673ffffffffffffffffffffffffffffffffffffffff1673ffffffffffffffffffffffffffffffffffffffff1681526020016002820160009054906101000a900473ffffffffffffffffffffffffffffffffffffffff1673ffffffffffffffffffffffffffffffffffffffff1673ffffffffffffffffffffffffffffffffffffffff168152602001600382015481526020016004820160009054906101000a900460ff1660ff1660ff1681525050905060008160600151111515610f5957600080fd5b85600460ff1680600583815481101515610f6f57fe5b906000526020600020906005020160040160009054906101000a900460ff1660ff16141515610f9d57600080fd5b600588815481101515610fac57fe5b906000526020600020906005020196508660010160009054906101000a900473ffffffffffffffffffffffffffffffffffffffff1673ffffffffffffffffffffffffffffffffffffffff166108fc88600301549081150290604051600060405180830381858888f1935050505015801561102a573d6000803e3d6000fd5b506000876003018190555060068760040160006101000a81548160ff021916908360ff160217905550611146888860a06040519081016040529081600082015481526020016001820160009054906101000a900473ffffffffffffffffffffffffffffffffffffffff1673ffffffffffffffffffffffffffffffffffffffff1673ffffffffffffffffffffffffffffffffffffffff1681526020016002820160009054906101000a900473ffffffffffffffffffffffffffffffffffffffff1673ffffffffffffffffffffffffffffffffffffffff1673ffffffffffffffffffffffffffffffffffffffff168152602001600382015481526020016004820160009054906101000a900460ff1660ff1660ff16815250506126e2565b5050505050505050565b60008161115b612e25565b60058281548110151561116a57fe5b906000526020600020906005020160a06040519081016040529081600082015481526020016001820160009054906101000a900473ffffffffffffffffffffffffffffffffffffffff1673ffffffffffffffffffffffffffffffffffffffff1673ffffffffffffffffffffffffffffffffffffffff1681526020016002820160009054906101000a900473ffffffffffffffffffffffffffffffffffffffff1673ffffffffffffffffffffffffffffffffffffffff1673ffffffffffffffffffffffffffffffffffffffff168152602001600382015481526020016004820160009054906101000a900460ff1660ff1660ff16815250509050806040015173ffffffffffffffffffffffffffffffffffffffff163373ffffffffffffffffffffffffffffffffffffffff161415156112a157600080fd5b836112aa612e25565b6005828154811015156112b957fe5b906000526020600020906005020160a06040519081016040529081600082015481526020016001820160009054906101000a900473ffffffffffffffffffffffffffffffffffffffff1673ffffffffffffffffffffffffffffffffffffffff1673ffffffffffffffffffffffffffffffffffffffff1681526020016002820160009054906101000a900473ffffffffffffffffffffffffffffffffffffffff1673ffffffffffffffffffffffffffffffffffffffff1673ffffffffffffffffffffffffffffffffffffffff168152602001600382015481526020016004820160009054906101000a900460ff1660ff1660ff16815250509050600081606001511115156113c557600080fd5b856113ce612e25565b6005828154811015156113dd57fe5b906000526020600020906005020160a06040519081016040529081600082015481526020016001820160009054906101000a900473ffffffffffffffffffffffffffffffffffffffff1673ffffffffffffffffffffffffffffffffffffffff1673ffffffffffffffffffffffffffffffffffffffff1681526020016002820160009054906101000a900473ffffffffffffffffffffffffffffffffffffffff1673ffffffffffffffffffffffffffffffffffffffff1673ffffffffffffffffffffffffffffffffffffffff168152602001600382015481526020016004820160009054906101000a900460ff1660ff1660ff16815250509050426212750082600001510111806114f75750600360ff16816080015160ff16145b151561150257600080fd5b60058881548110151561151157fe5b906000526020600020906005020196508660020160009054906101000a900473ffffffffffffffffffffffffffffffffffffffff1673ffffffffffffffffffffffffffffffffffffffff166108fc61158261156f8a60030154611ed6565b8a6003015461293e90919063ffffffff16565b9081150290604051600060405180830381858888f193505050501580156115ad573d6000803e3d6000fd5b506000876003018190555060058760040160006101000a81548160ff021916908360ff1602179055506116c9888860a06040519081016040529081600082015481526020016001820160009054906101000a900473ffffffffffffffffffffffffffffffffffffffff1673ffffffffffffffffffffffffffffffffffffffff1673ffffffffffffffffffffffffffffffffffffffff1681526020016002820160009054906101000a900473ffffffffffffffffffffffffffffffffffffffff1673ffffffffffffffffffffffffffffffffffffffff1673ffffffffffffffffffffffffffffffffffffffff168152602001600382015481526020016004820160009054906101000a900460ff1660ff1660ff16815250506126e2565b5050505050505050565b6000809054906101000a900473ffffffffffffffffffffffffffffffffffffffff1673ffffffffffffffffffffffffffffffffffffffff163373ffffffffffffffffffffffffffffffffffffffff1614151561172e57600080fd5b6003548110151561173e57600080fd5b8060028190555050565b600460009054906101000a900460ff16151561176357600080fd5b6000809054906101000a900473ffffffffffffffffffffffffffffffffffffffff1673ffffffffffffffffffffffffffffffffffffffff163373ffffffffffffffffffffffffffffffffffffffff161415156117be57600080fd5b6000600460006101000a81548160ff021916908315150217905550565b6000816117e6612e25565b6005828154811015156117f557fe5b906000526020600020906005020160a06040519081016040529081600082015481526020016001820160009054906101000a900473ffffffffffffffffffffffffffffffffffffffff1673ffffffffffffffffffffffffffffffffffffffff1673ffffffffffffffffffffffffffffffffffffffff1681526020016002820160009054906101000a900473ffffffffffffffffffffffffffffffffffffffff1673ffffffffffffffffffffffffffffffffffffffff1673ffffffffffffffffffffffffffffffffffffffff168152602001600382015481526020016004820160009054906101000a900460ff1660ff1660ff16815250509050806020015173ffffffffffffffffffffffffffffffffffffffff163373ffffffffffffffffffffffffffffffffffffffff16148061195b5750806040015173ffffffffffffffffffffffffffffffffffffffff163373ffffffffffffffffffffffffffffffffffffffff16145b151561196657600080fd5b60058481548110151561197557fe5b90600052602060002090600502019250600160ff168360040160009054906101000a900460ff1660ff16111515156119ac57600080fd5b60048360040160006101000a81548160ff021916908360ff160217905550611abd848460a06040519081016040529081600082015481526020016001820160009054906101000a900473ffffffffffffffffffffffffffffffffffffffff1673ffffffffffffffffffffffffffffffffffffffff1673ffffffffffffffffffffffffffffffffffffffff1681526020016002820160009054906101000a900473ffffffffffffffffffffffffffffffffffffffff1673ffffffffffffffffffffffffffffffffffffffff1673ffffffffffffffffffffffffffffffffffffffff168152602001600382015481526020016004820160009054906101000a900460ff1660ff1660ff16815250506126e2565b50505050565b6000809054906101000a900473ffffffffffffffffffffffffffffffffffffffff1673ffffffffffffffffffffffffffffffffffffffff163373ffffffffffffffffffffffffffffffffffffffff16141515611b1e57600080fd5b600181111515611b2d57600080fd5b8060018190555050565b6000600582815481101515611b4857fe5b9060005260206000209060050201600301549050919050565b606080600080600760008673ffffffffffffffffffffffffffffffffffffffff1673ffffffffffffffffffffffffffffffffffffffff16815260200190815260200160002054604051908082528060200260200182016040528015611bd55781602001602082028038833980820191505090505b50925060009150600090505b600580549050811015611c95578473ffffffffffffffffffffffffffffffffffffffff16600582815481101515611c1457fe5b906000526020600020906005020160020160009054906101000a900473ffffffffffffffffffffffffffffffffffffffff1673ffffffffffffffffffffffffffffffffffffffff161415611c8857808383815181101515611c7157fe5b906020019060200201818152505081806001019250505b8080600101915050611be1565b829350505050919050565b6000809054906101000a900473ffffffffffffffffffffffffffffffffffffffff1673ffffffffffffffffffffffffffffffffffffffff163373ffffffffffffffffffffffffffffffffffffffff16141515611cfb57600080fd5b60025481111515611d0b57600080fd5b8060038190555050565b6000809054906101000a900473ffffffffffffffffffffffffffffffffffffffff1673ffffffffffffffffffffffffffffffffffffffff163373ffffffffffffffffffffffffffffffffffffffff16141515611d7057600080fd5b6000809054906101000a900473ffffffffffffffffffffffffffffffffffffffff1673ffffffffffffffffffffffffffffffffffffffff167ff8df31144d9c2f0f6b59d69b8b98abd5459d07f2742c4df920b25aae33c6482060405160405180910390a260008060006101000a81548173ffffffffffffffffffffffffffffffffffffffff021916908373ffffffffffffffffffffffffffffffffffffffff160217905550565b600460009054906101000a900460ff16151515611e3357600080fd5b6000809054906101000a900473ffffffffffffffffffffffffffffffffffffffff1673ffffffffffffffffffffffffffffffffffffffff163373ffffffffffffffffffffffffffffffffffffffff16141515611e8e57600080fd5b6001600460006101000a81548160ff021916908315150217905550565b6000809054906101000a900473ffffffffffffffffffffffffffffffffffffffff1681565b60015481565b600080611eee6001548461295790919063ffffffff16565b9050611f07600354611f028360025461296d565b612986565b915050919050565b600460009054906101000a900460ff16151515611f2b57600080fd5b8060008173ffffffffffffffffffffffffffffffffffffffff1614151515611f5257600080fd5b8173ffffffffffffffffffffffffffffffffffffffff163373ffffffffffffffffffffffffffffffffffffffff1614151515611f8d57600080fd5b611f9a338334600161299f565b5050565b600460009054906101000a900460ff1681565b600060025434111515611fc357600080fd5b600582815481101515611fd257fe5b9060005260206000209060050201905034816003018190555060018160040160006101000a81548160ff021916908360ff1602179055506120fc828260a06040519081016040529081600082015481526020016001820160009054906101000a900473ffffffffffffffffffffffffffffffffffffffff1673ffffffffffffffffffffffffffffffffffffffff1673ffffffffffffffffffffffffffffffffffffffff1681526020016002820160009054906101000a900473ffffffffffffffffffffffffffffffffffffffff1673ffffffffffffffffffffffffffffffffffffffff1673ffffffffffffffffffffffffffffffffffffffff168152602001600382015481526020016004820160009054906101000a900460ff1660ff1660ff16815250506126e2565b5050565b80612109612e25565b60058281548110151561211857fe5b906000526020600020906005020160a06040519081016040529081600082015481526020016001820160009054906101000a900473ffffffffffffffffffffffffffffffffffffffff1673ffffffffffffffffffffffffffffffffffffffff1673ffffffffffffffffffffffffffffffffffffffff1681526020016002820160009054906101000a900473ffffffffffffffffffffffffffffffffffffffff1673ffffffffffffffffffffffffffffffffffffffff1673ffffffffffffffffffffffffffffffffffffffff168152602001600382015481526020016004820160009054906101000a900460ff1660ff1660ff16815250509050806020015173ffffffffffffffffffffffffffffffffffffffff163373ffffffffffffffffffffffffffffffffffffffff1614151561224f57600080fd5b82600260ff168060058381548110151561226557fe5b906000526020600020906005020160040160009054906101000a900460ff1660ff1614151561229357600080fd5b60036005868154811015156122a457fe5b906000526020600020906005020160040160006101000a81548160ff021916908360ff1602179055506123dc856005878154811015156122e057fe5b906000526020600020906005020160a06040519081016040529081600082015481526020016001820160009054906101000a900473ffffffffffffffffffffffffffffffffffffffff1673ffffffffffffffffffffffffffffffffffffffff1673ffffffffffffffffffffffffffffffffffffffff1681526020016002820160009054906101000a900473ffffffffffffffffffffffffffffffffffffffff1673ffffffffffffffffffffffffffffffffffffffff1673ffffffffffffffffffffffffffffffffffffffff168152602001600382015481526020016004820160009054906101000a900460ff1660ff1660ff16815250506126e2565b5050505050565b606080600080600660008673ffffffffffffffffffffffffffffffffffffffff1673ffffffffffffffffffffffffffffffffffffffff168152602001908152602001600020546040519080825280602002602001820160405280156124575781602001602082028038833980820191505090505b50925060009150600090505b600580549050811015612517578473ffffffffffffffffffffffffffffffffffffffff1660058281548110151561249657fe5b906000526020600020906005020160010160009054906101000a900473ffffffffffffffffffffffffffffffffffffffff1673ffffffffffffffffffffffffffffffffffffffff16141561250a578083838151811015156124f357fe5b906020019060200201818152505081806001019250505b8080600101915050612463565b829350505050919050565b600460009054906101000a900460ff1615151561253e57600080fd5b8160008173ffffffffffffffffffffffffffffffffffffffff161415151561256557600080fd5b8160008173ffffffffffffffffffffffffffffffffffffffff161415151561258c57600080fd5b612599848460008061299f565b50505050565b6000809054906101000a900473ffffffffffffffffffffffffffffffffffffffff1673ffffffffffffffffffffffffffffffffffffffff163373ffffffffffffffffffffffffffffffffffffffff161415156125fa57600080fd5b6000809054906101000a900473ffffffffffffffffffffffffffffffffffffffff1673ffffffffffffffffffffffffffffffffffffffff166108fc3073ffffffffffffffffffffffffffffffffffffffff16319081150290604051600060405180830381858888f19350505050158015612678573d6000803e3d6000fd5b50565b6000809054906101000a900473ffffffffffffffffffffffffffffffffffffffff1673ffffffffffffffffffffffffffffffffffffffff163373ffffffffffffffffffffffffffffffffffffffff161415156126d657600080fd5b6126df81612d0f565b50565b7f801034588d37f75ccfadb2f9a9ae39d2be61600510b36f08559b8ffb305ae4d7828260200151836040015184606001518560800151604051808681526020018573ffffffffffffffffffffffffffffffffffffffff1673ffffffffffffffffffffffffffffffffffffffff1681526020018473ffffffffffffffffffffffffffffffffffffffff1673ffffffffffffffffffffffffffffffffffffffff1681526020018381526020018260ff1660ff1681526020019550505050505060405180910390a1600160ff16816080015160ff161415612872577f7036bc13c07de78f61eb6cd7116368c8032f8153583c2fc0c60ce17c0fab2cf582826020015183604001518460600151604051808581526020018473ffffffffffffffffffffffffffffffffffffffff1673ffffffffffffffffffffffffffffffffffffffff1681526020018373ffffffffffffffffffffffffffffffffffffffff1673ffffffffffffffffffffffffffffffffffffffff16815260200182815260200194505050505060405180910390a161293a565b600560ff16816080015160ff161415612939577fde7998ef827c3f7ec152ef801a84155d696eaafbe6e0e0f61ddd9dad90a9684b82826020015183604001518460600151604051808581526020018473ffffffffffffffffffffffffffffffffffffffff1673ffffffffffffffffffffffffffffffffffffffff1681526020018373ffffffffffffffffffffffffffffffffffffffff1673ffffffffffffffffffffffffffffffffffffffff16815260200182815260200194505050505060405180910390a15b5b5050565b600082821115151561294c57fe5b818303905092915050565b6000818381151561296457fe5b04905092915050565b600081831161297c578161297e565b825b905092915050565b60008183106129955781612997565b825b905092915050565b60008373ffffffffffffffffffffffffffffffffffffffff168573ffffffffffffffffffffffffffffffffffffffff16141515156129dc57600080fd5b600560a0604051908101604052804281526020018773ffffffffffffffffffffffffffffffffffffffff1681526020018673ffffffffffffffffffffffffffffffffffffffff1681526020018581526020018460ff16815250908060018154018082558091505090600182039060005260206000209060050201600090919290919091506000820151816000015560208201518160010160006101000a81548173ffffffffffffffffffffffffffffffffffffffff021916908373ffffffffffffffffffffffffffffffffffffffff16021790555060408201518160020160006101000a81548173ffffffffffffffffffffffffffffffffffffffff021916908373ffffffffffffffffffffffffffffffffffffffff1602179055506060820151816003015560808201518160040160006101000a81548160ff021916908360ff16021790555050509050612b7a6001600660008873ffffffffffffffffffffffffffffffffffffffff1673ffffffffffffffffffffffffffffffffffffffff16815260200190815260200160002054612e0990919063ffffffff16565b600660008773ffffffffffffffffffffffffffffffffffffffff1673ffffffffffffffffffffffffffffffffffffffff16815260200190815260200160002081905550612c106001600760008773ffffffffffffffffffffffffffffffffffffffff1673ffffffffffffffffffffffffffffffffffffffff16815260200190815260200160002054612e0990919063ffffffff16565b600760008673ffffffffffffffffffffffffffffffffffffffff1673ffffffffffffffffffffffffffffffffffffffff168152602001908152602001600020819055507f801034588d37f75ccfadb2f9a9ae39d2be61600510b36f08559b8ffb305ae4d78186868686604051808681526020018573ffffffffffffffffffffffffffffffffffffffff1673ffffffffffffffffffffffffffffffffffffffff1681526020018473ffffffffffffffffffffffffffffffffffffffff1673ffffffffffffffffffffffffffffffffffffffff1681526020018381526020018260ff1660ff1681526020019550505050505060405180910390a15050505050565b600073ffffffffffffffffffffffffffffffffffffffff168173ffffffffffffffffffffffffffffffffffffffff1614151515612d4b57600080fd5b8073ffffffffffffffffffffffffffffffffffffffff166000809054906101000a900473ffffffffffffffffffffffffffffffffffffffff1673ffffffffffffffffffffffffffffffffffffffff167f8be0079c531659141344cd1fd0a4f28419497f9722a3daafe3b4186f6b6457e060405160405180910390a3806000806101000a81548173ffffffffffffffffffffffffffffffffffffffff021916908373ffffffffffffffffffffffffffffffffffffffff16021790555050565b60008183019050828110151515612e1c57fe5b80905092915050565b60a06040519081016040528060008152602001600073ffffffffffffffffffffffffffffffffffffffff168152602001600073ffffffffffffffffffffffffffffffffffffffff16815260200160008152602001600060ff16815250905600a165627a7a723058208794e684af69d38bfb43b9a39174dd7b0aa515b44fb327ce4543050c7719d2b70029",
  "source": "pragma solidity ^0.4.23;\n\nimport \"openzeppelin-solidity/contracts/math/SafeMath.sol\";\n\nimport \"./Business.sol\";\nimport \"./Escrows.sol\";\n\n/**\n * @title Descro\n * @dev Mostly public funciton definition related to escrow\n */\ncontract Descro is Business, Escrows {\n  using SafeMath for uint256;\n\n  function createNewEscrow(address _buyer, address _seller) external onlyInService onlyValidAddress(_buyer) onlyValidAddress(_seller) {\n    _addNewEscrow(_buyer, _seller, 0, CREATED);\n  }\n\n  function depositNewEscrow(address _seller) external payable onlyInService onlyValidAddress(_seller) {\n    require(msg.sender != _seller);\n    _addNewEscrow(msg.sender, _seller, msg.value, DEPOSITED);\n  }\n\n  function deposit(uint _id) external payable moreThanFee {\n    Escrow storage escrow = escrows[_id];\n    escrow.balance = msg.value;\n    escrow.status = DEPOSITED;\n\n    logEscrow(_id, escrow);\n  }\n\n  function sendProduct(uint _id) external onlySeller(_id) requireBalance(_id) onlyStatus(_id, DEPOSITED) {\n    escrows[_id].status = PRODUCT_SENT;\n\n    logEscrow(_id, escrows[_id]);\n  }\n\n  function approve(uint _id) external onlyBuyer(_id) onlyStatus(_id, PRODUCT_SENT) {\n    escrows[_id].status = APPROVED;\n\n    logEscrow(_id, escrows[_id]);\n  }\n\n  function cancel(uint _id) external onlyBuyerOrSeller(_id) {\n    Escrow storage escrow = escrows[_id];\n    require(escrow.status <= DEPOSITED);\n    escrow.status = CANCELLED;\n\n    logEscrow(_id, escrow);\n  }\n\n  function withdraw(uint _id) external onlySeller(_id) requireBalance(_id) onlyWithdrawable(_id) {\n    Escrow storage escrow = escrows[_id];\n    escrow.seller.transfer(escrow.balance.sub(calculateFee(escrow.balance)));\n    escrow.balance = 0;\n    escrow.status = COMPLETED;\n\n    logEscrow(_id, escrow);\n  }\n\n  function refund(uint _id) external onlyBuyer(_id) requireBalance(_id) onlyStatus(_id, CANCELLED) {\n    Escrow storage escrow = escrows[_id];\n    escrow.buyer.transfer(escrow.balance);\n    escrow.balance = 0;\n    escrow.status = REFUNDED;\n\n    logEscrow(_id, escrow);\n  }\n\n  function getBalanceByEscrowId(uint _id) external view returns (uint) {\n    return escrows[_id].balance;\n  }\n\n  function getEscrowsByBuyer(address _buyer) external view returns (uint[]) {\n    uint[] memory result = new uint[](escrowCountByBuyer[_buyer]);\n\n    uint counter = 0;\n    for (uint i = 0; i < escrows.length; i++) {\n      if (escrows[i].buyer == _buyer) {\n        result[counter] = i;\n        counter++;\n      }\n    }\n    return result;\n  }\n\n  function getEscrowsBySeller(address _seller) external view returns (uint[]) {\n    uint[] memory result = new uint[](escrowCountBySeller[_seller]);\n\n    uint counter = 0;\n    for (uint i = 0; i < escrows.length; i++) {\n      if (escrows[i].seller == _seller) {\n        result[counter] = i;\n        counter++;\n      }\n    }\n    return result;\n  }\n}\n",
  "sourcePath": "/Users/KimSeokjun/Development/descro/contracts/Descro.sol",
  "compiler": {
    "name": "solc",
    "version": "0.4.24+commit.e67f0147.Emscripten.clang"
  },
  "schemaVersion": "2.0.1",
  "updatedAt": "2018-07-04T14:32:18.044Z"
}