{
  "contractName": "Escrows",
  "abi": [
    {
      "constant": true,
      "inputs": [
        {
          "name": "",
          "type": "uint256"
        }
      ],
      "name": "escrows",
      "outputs": [
        {
          "name": "createdAt",
          "type": "uint256"
        },
        {
          "name": "buyer",
          "type": "address"
        },
        {
          "name": "seller",
          "type": "address"
        },
        {
          "name": "balance",
          "type": "uint256"
        },
        {
          "name": "status",
          "type": "uint8"
        }
      ],
      "payable": false,
      "stateMutability": "view",
      "type": "function"
    },
    {
      "constant": false,
      "inputs": [],
      "name": "unpause",
      "outputs": [],
      "payable": false,
      "stateMutability": "nonpayable",
      "type": "function"
    },
    {
      "constant": false,
      "inputs": [],
      "name": "renounceOwnership",
      "outputs": [],
      "payable": false,
      "stateMutability": "nonpayable",
      "type": "function"
    },
    {
      "constant": false,
      "inputs": [],
      "name": "pause",
      "outputs": [],
      "payable": false,
      "stateMutability": "nonpayable",
      "type": "function"
    },
    {
      "constant": true,
      "inputs": [],
      "name": "owner",
      "outputs": [
        {
          "name": "",
          "type": "address"
        }
      ],
      "payable": false,
      "stateMutability": "view",
      "type": "function"
    },
    {
      "constant": true,
      "inputs": [],
      "name": "isPaused",
      "outputs": [
        {
          "name": "",
          "type": "bool"
        }
      ],
      "payable": false,
      "stateMutability": "view",
      "type": "function"
    },
    {
      "constant": false,
      "inputs": [
        {
          "name": "_newOwner",
          "type": "address"
        }
      ],
      "name": "transferOwnership",
      "outputs": [],
      "payable": false,
      "stateMutability": "nonpayable",
      "type": "function"
    },
    {
      "anonymous": false,
      "inputs": [
        {
          "indexed": false,
          "name": "escrowId",
          "type": "uint256"
        },
        {
          "indexed": false,
          "name": "buyer",
          "type": "address"
        },
        {
          "indexed": false,
          "name": "seller",
          "type": "address"
        },
        {
          "indexed": false,
          "name": "balance",
          "type": "uint256"
        },
        {
          "indexed": false,
          "name": "status",
          "type": "uint8"
        }
      ],
      "name": "LogEscrow",
      "type": "event"
    },
    {
      "anonymous": false,
      "inputs": [
        {
          "indexed": false,
          "name": "escrowId",
          "type": "uint256"
        },
        {
          "indexed": false,
          "name": "buyer",
          "type": "address"
        },
        {
          "indexed": false,
          "name": "seller",
          "type": "address"
        },
        {
          "indexed": false,
          "name": "balance",
          "type": "uint256"
        }
      ],
      "name": "LogDepositEscrow",
      "type": "event"
    },
    {
      "anonymous": false,
      "inputs": [
        {
          "indexed": false,
          "name": "escrowId",
          "type": "uint256"
        },
        {
          "indexed": false,
          "name": "buyer",
          "type": "address"
        },
        {
          "indexed": false,
          "name": "seller",
          "type": "address"
        },
        {
          "indexed": false,
          "name": "balance",
          "type": "uint256"
        }
      ],
      "name": "LogCompleteEscrow",
      "type": "event"
    },
    {
      "anonymous": false,
      "inputs": [
        {
          "indexed": true,
          "name": "previousOwner",
          "type": "address"
        }
      ],
      "name": "OwnershipRenounced",
      "type": "event"
    },
    {
      "anonymous": false,
      "inputs": [
        {
          "indexed": true,
          "name": "previousOwner",
          "type": "address"
        },
        {
          "indexed": true,
          "name": "newOwner",
          "type": "address"
        }
      ],
      "name": "OwnershipTransferred",
      "type": "event"
    }
  ],
  "bytecode": "0x608060405260008060146101000a81548160ff021916908315150217905550336000806101000a81548173ffffffffffffffffffffffffffffffffffffffff021916908373ffffffffffffffffffffffffffffffffffffffff1602179055506106d08061006d6000396000f300608060405260043610610083576000357c0100000000000000000000000000000000000000000000000000000000900463ffffffff168063012f52ee146100885780633f4ba83a14610143578063715018a61461015a5780638456cb59146101715780638da5cb5b14610188578063b187bd26146101df578063f2fde38b1461020e575b600080fd5b34801561009457600080fd5b506100b360048036038101908080359060200190929190505050610251565b604051808681526020018573ffffffffffffffffffffffffffffffffffffffff1673ffffffffffffffffffffffffffffffffffffffff1681526020018473ffffffffffffffffffffffffffffffffffffffff1673ffffffffffffffffffffffffffffffffffffffff1681526020018381526020018260ff1660ff1681526020019550505050505060405180910390f35b34801561014f57600080fd5b506101586102e3565b005b34801561016657600080fd5b5061016f610375565b005b34801561017d57600080fd5b50610186610477565b005b34801561019457600080fd5b5061019d61050b565b604051808273ffffffffffffffffffffffffffffffffffffffff1673ffffffffffffffffffffffffffffffffffffffff16815260200191505060405180910390f35b3480156101eb57600080fd5b506101f4610530565b604051808215151515815260200191505060405180910390f35b34801561021a57600080fd5b5061024f600480360381019080803573ffffffffffffffffffffffffffffffffffffffff169060200190929190505050610543565b005b60018181548110151561026057fe5b90600052602060002090600502016000915090508060000154908060010160009054906101000a900473ffffffffffffffffffffffffffffffffffffffff16908060020160009054906101000a900473ffffffffffffffffffffffffffffffffffffffff16908060030154908060040160009054906101000a900460ff16905085565b600060149054906101000a900460ff1615156102fe57600080fd5b6000809054906101000a900473ffffffffffffffffffffffffffffffffffffffff1673ffffffffffffffffffffffffffffffffffffffff163373ffffffffffffffffffffffffffffffffffffffff1614151561035957600080fd5b60008060146101000a81548160ff021916908315150217905550565b6000809054906101000a900473ffffffffffffffffffffffffffffffffffffffff1673ffffffffffffffffffffffffffffffffffffffff163373ffffffffffffffffffffffffffffffffffffffff161415156103d057600080fd5b6000809054906101000a900473ffffffffffffffffffffffffffffffffffffffff1673ffffffffffffffffffffffffffffffffffffffff167ff8df31144d9c2f0f6b59d69b8b98abd5459d07f2742c4df920b25aae33c6482060405160405180910390a260008060006101000a81548173ffffffffffffffffffffffffffffffffffffffff021916908373ffffffffffffffffffffffffffffffffffffffff160217905550565b600060149054906101000a900460ff1615151561049357600080fd5b6000809054906101000a900473ffffffffffffffffffffffffffffffffffffffff1673ffffffffffffffffffffffffffffffffffffffff163373ffffffffffffffffffffffffffffffffffffffff161415156104ee57600080fd5b6001600060146101000a81548160ff021916908315150217905550565b6000809054906101000a900473ffffffffffffffffffffffffffffffffffffffff1681565b600060149054906101000a900460ff1681565b6000809054906101000a900473ffffffffffffffffffffffffffffffffffffffff1673ffffffffffffffffffffffffffffffffffffffff163373ffffffffffffffffffffffffffffffffffffffff1614151561059e57600080fd5b6105a7816105aa565b50565b600073ffffffffffffffffffffffffffffffffffffffff168173ffffffffffffffffffffffffffffffffffffffff16141515156105e657600080fd5b8073ffffffffffffffffffffffffffffffffffffffff166000809054906101000a900473ffffffffffffffffffffffffffffffffffffffff1673ffffffffffffffffffffffffffffffffffffffff167f8be0079c531659141344cd1fd0a4f28419497f9722a3daafe3b4186f6b6457e060405160405180910390a3806000806101000a81548173ffffffffffffffffffffffffffffffffffffffff021916908373ffffffffffffffffffffffffffffffffffffffff160217905550505600a165627a7a723058203f5890567abe64f4e2afe942e51e92e469222bde5a6019318420b2887749d39d0029",
  "source": "pragma solidity ^0.4.23;\n\nimport \"openzeppelin-solidity/contracts/math/SafeMath.sol\";\n\nimport \"./Pausible.sol\";\n\n/**\n * @title Escrows\n * @dev Define escrows in Descro\n */\ncontract Escrows is Pausible {\n  using SafeMath for uint256;\n\n  uint8 constant CREATED = 0;\n  uint8 constant DEPOSITED = 1;\n  uint8 constant PRODUCT_SENT = 2;\n  uint8 constant APPROVED = 3;\n  uint8 constant CANCELLED = 4;\n  uint8 constant COMPLETED = 5;\n  uint8 constant REFUNDED = 6;\n\n  struct Escrow {\n    uint createdAt;\n    address buyer;\n    address seller;\n    uint balance;\n    uint8 status;\n  }\n\n  Escrow[] public escrows;\n\n  mapping (address => uint) escrowCountByBuyer;\n  mapping (address => uint) escrowCountBySeller;\n\n  /* Loggers */\n  event LogEscrow(uint escrowId, address buyer, address seller, uint balance, uint8 status);\n  event LogDepositEscrow(uint escrowId, address buyer, address seller, uint balance);\n  event LogCompleteEscrow(uint escrowId, address buyer, address seller, uint balance);\n\n  function logEscrow(uint _id, Escrow _escrow) internal {\n    emit LogEscrow(_id, _escrow.buyer, _escrow.seller, _escrow.balance, _escrow.status);\n\n    if (_escrow.status == DEPOSITED) {\n      emit LogDepositEscrow(_id, _escrow.buyer, _escrow.seller, _escrow.balance);\n    } else if (_escrow.status == COMPLETED) {\n      emit LogCompleteEscrow(_id, _escrow.buyer, _escrow.seller, _escrow.balance);\n    }\n  }\n\n  /* Modifiers */\n  modifier onlyStatus(uint _id, uint _status) {\n    require(escrows[_id].status == _status);\n    _;\n  }\n\n  modifier onlyBuyerOrSeller(uint _id) {\n    Escrow memory escrow = escrows[_id];\n    require(msg.sender == escrow.buyer || msg.sender == escrow.seller);\n    _;\n  }\n\n  modifier onlyBuyer(uint _id) {\n    Escrow memory escrow = escrows[_id];\n    require(msg.sender == escrow.buyer);\n    _;\n  }\n\n  modifier onlySeller(uint _id) {\n    Escrow memory escrow = escrows[_id];\n    require(msg.sender == escrow.seller);\n    _;\n  }\n\n  modifier onlyWithdrawable(uint _id) {\n    Escrow memory escrow = escrows[_id];\n    require(escrow.createdAt + 14 days > now || escrow.status == APPROVED);\n    _;\n  }\n\n  modifier requireBalance(uint _id) {\n    Escrow memory escrow = escrows[_id];\n    require(escrow.balance > 0);\n    _;\n  }\n\n  /* Utility Modifiers */\n  modifier onlyValidAddress(address _address) {\n    require(_address != 0x0);\n    _;\n  }\n\n  /* Creator */\n  function _addNewEscrow(\n    address _buyer,\n    address _seller,\n    uint _balance,\n    uint8 _status\n  ) internal {\n    require(_buyer != _seller);\n    uint id = escrows.push(Escrow(now, _buyer, _seller, _balance, _status));\n    escrowCountByBuyer[_buyer] = escrowCountByBuyer[_buyer].add(1);\n    escrowCountBySeller[_seller] = escrowCountBySeller[_seller].add(1);\n\n    emit LogEscrow(id, _buyer, _seller, _balance, _status);\n  }\n}\n",
  "sourcePath": "/Users/KimSeokjun/Development/descro/contracts/Escrows.sol",
  "compiler": {
    "name": "solc",
    "version": "0.4.24+commit.e67f0147.Emscripten.clang"
  },
  "schemaVersion": "2.0.1",
  "updatedAt": "2018-07-04T14:32:18.040Z"
}