{
  "contractName": "Escrows",
  "abi": [
    {
      "constant": true,
      "inputs": [
        {
          "name": "",
          "type": "uint256"
        }
      ],
      "name": "escrows",
      "outputs": [
        {
          "name": "createdAt",
          "type": "uint256"
        },
        {
          "name": "buyer",
          "type": "address"
        },
        {
          "name": "seller",
          "type": "address"
        },
        {
          "name": "balance",
          "type": "uint256"
        },
        {
          "name": "status",
          "type": "uint8"
        }
      ],
      "payable": false,
      "stateMutability": "view",
      "type": "function"
    },
    {
      "constant": false,
      "inputs": [],
      "name": "unpause",
      "outputs": [],
      "payable": false,
      "stateMutability": "nonpayable",
      "type": "function"
    },
    {
      "constant": false,
      "inputs": [],
      "name": "renounceOwnership",
      "outputs": [],
      "payable": false,
      "stateMutability": "nonpayable",
      "type": "function"
    },
    {
      "constant": false,
      "inputs": [],
      "name": "pause",
      "outputs": [],
      "payable": false,
      "stateMutability": "nonpayable",
      "type": "function"
    },
    {
      "constant": true,
      "inputs": [],
      "name": "owner",
      "outputs": [
        {
          "name": "",
          "type": "address"
        }
      ],
      "payable": false,
      "stateMutability": "view",
      "type": "function"
    },
    {
      "constant": true,
      "inputs": [],
      "name": "isPaused",
      "outputs": [
        {
          "name": "",
          "type": "bool"
        }
      ],
      "payable": false,
      "stateMutability": "view",
      "type": "function"
    },
    {
      "constant": false,
      "inputs": [
        {
          "name": "_newOwner",
          "type": "address"
        }
      ],
      "name": "transferOwnership",
      "outputs": [],
      "payable": false,
      "stateMutability": "nonpayable",
      "type": "function"
    },
    {
      "anonymous": false,
      "inputs": [
        {
          "indexed": false,
          "name": "escrowId",
          "type": "uint256"
        },
        {
          "indexed": false,
          "name": "buyer",
          "type": "address"
        },
        {
          "indexed": false,
          "name": "seller",
          "type": "address"
        },
        {
          "indexed": false,
          "name": "balance",
          "type": "uint256"
        },
        {
          "indexed": false,
          "name": "status",
          "type": "uint8"
        }
      ],
      "name": "LogEscrow",
      "type": "event"
    },
    {
      "anonymous": false,
      "inputs": [
        {
          "indexed": true,
          "name": "previousOwner",
          "type": "address"
        }
      ],
      "name": "OwnershipRenounced",
      "type": "event"
    },
    {
      "anonymous": false,
      "inputs": [
        {
          "indexed": true,
          "name": "previousOwner",
          "type": "address"
        },
        {
          "indexed": true,
          "name": "newOwner",
          "type": "address"
        }
      ],
      "name": "OwnershipTransferred",
      "type": "event"
    },
    {
      "constant": false,
      "inputs": [
        {
          "name": "_buyer",
          "type": "address"
        },
        {
          "name": "_seller",
          "type": "address"
        }
      ],
      "name": "createNewEscrow",
      "outputs": [],
      "payable": false,
      "stateMutability": "nonpayable",
      "type": "function"
    },
    {
      "constant": false,
      "inputs": [
        {
          "name": "_seller",
          "type": "address"
        }
      ],
      "name": "createNewEscrowWithDeposit",
      "outputs": [],
      "payable": true,
      "stateMutability": "payable",
      "type": "function"
    }
  ],
  "bytecode": "0x608060405260008060146101000a81548160ff021916908315150217905550336000806101000a81548173ffffffffffffffffffffffffffffffffffffffff021916908373ffffffffffffffffffffffffffffffffffffffff160217905550610bb28061006d6000396000f300608060405260043610610099576000357c0100000000000000000000000000000000000000000000000000000000900463ffffffff168063012f52ee1461009e5780633f4ba83a14610159578063715018a6146101705780638456cb59146101875780638da5cb5b1461019e578063a2610b53146101f5578063b187bd261461022b578063e39c792f1461025a578063f2fde38b146102bd575b600080fd5b3480156100aa57600080fd5b506100c960048036038101908080359060200190929190505050610300565b604051808681526020018573ffffffffffffffffffffffffffffffffffffffff1673ffffffffffffffffffffffffffffffffffffffff1681526020018473ffffffffffffffffffffffffffffffffffffffff1673ffffffffffffffffffffffffffffffffffffffff1681526020018381526020018260ff1660ff1681526020019550505050505060405180910390f35b34801561016557600080fd5b5061016e610392565b005b34801561017c57600080fd5b50610185610424565b005b34801561019357600080fd5b5061019c610526565b005b3480156101aa57600080fd5b506101b36105ba565b604051808273ffffffffffffffffffffffffffffffffffffffff1673ffffffffffffffffffffffffffffffffffffffff16815260200191505060405180910390f35b610229600480360381019080803573ffffffffffffffffffffffffffffffffffffffff1690602001909291905050506105df565b005b34801561023757600080fd5b506102406106f2565b604051808215151515815260200191505060405180910390f35b34801561026657600080fd5b506102bb600480360381019080803573ffffffffffffffffffffffffffffffffffffffff169060200190929190803573ffffffffffffffffffffffffffffffffffffffff169060200190929190505050610705565b005b3480156102c957600080fd5b506102fe600480360381019080803573ffffffffffffffffffffffffffffffffffffffff169060200190929190505050610783565b005b60018181548110151561030f57fe5b90600052602060002090600502016000915090508060000154908060010160009054906101000a900473ffffffffffffffffffffffffffffffffffffffff16908060020160009054906101000a900473ffffffffffffffffffffffffffffffffffffffff16908060030154908060040160009054906101000a900460ff16905085565b600060149054906101000a900460ff1615156103ad57600080fd5b6000809054906101000a900473ffffffffffffffffffffffffffffffffffffffff1673ffffffffffffffffffffffffffffffffffffffff163373ffffffffffffffffffffffffffffffffffffffff1614151561040857600080fd5b60008060146101000a81548160ff021916908315150217905550565b6000809054906101000a900473ffffffffffffffffffffffffffffffffffffffff1673ffffffffffffffffffffffffffffffffffffffff163373ffffffffffffffffffffffffffffffffffffffff1614151561047f57600080fd5b6000809054906101000a900473ffffffffffffffffffffffffffffffffffffffff1673ffffffffffffffffffffffffffffffffffffffff167ff8df31144d9c2f0f6b59d69b8b98abd5459d07f2742c4df920b25aae33c6482060405160405180910390a260008060006101000a81548173ffffffffffffffffffffffffffffffffffffffff021916908373ffffffffffffffffffffffffffffffffffffffff160217905550565b600060149054906101000a900460ff1615151561054257600080fd5b6000809054906101000a900473ffffffffffffffffffffffffffffffffffffffff1673ffffffffffffffffffffffffffffffffffffffff163373ffffffffffffffffffffffffffffffffffffffff1614151561059d57600080fd5b6001600060146101000a81548160ff021916908315150217905550565b6000809054906101000a900473ffffffffffffffffffffffffffffffffffffffff1681565b600080600060149054906101000a900460ff161515156105fe57600080fd5b8260008173ffffffffffffffffffffffffffffffffffffffff161415151561062557600080fd5b60019250610635338534866107ea565b91507f801034588d37f75ccfadb2f9a9ae39d2be61600510b36f08559b8ffb305ae4d78233863487604051808681526020018573ffffffffffffffffffffffffffffffffffffffff1673ffffffffffffffffffffffffffffffffffffffff1681526020018473ffffffffffffffffffffffffffffffffffffffff1673ffffffffffffffffffffffffffffffffffffffff1681526020018381526020018260ff1660ff1681526020019550505050505060405180910390a150505050565b600060149054906101000a900460ff1681565b600060149054906101000a900460ff1615151561072157600080fd5b8160008173ffffffffffffffffffffffffffffffffffffffff161415151561074857600080fd5b8160008173ffffffffffffffffffffffffffffffffffffffff161415151561076f57600080fd5b61077c84846000806107ea565b5050505050565b6000809054906101000a900473ffffffffffffffffffffffffffffffffffffffff1673ffffffffffffffffffffffffffffffffffffffff163373ffffffffffffffffffffffffffffffffffffffff161415156107de57600080fd5b6107e781610a70565b50565b600080600160a0604051908101604052804281526020018873ffffffffffffffffffffffffffffffffffffffff1681526020018773ffffffffffffffffffffffffffffffffffffffff1681526020018681526020018560ff16815250908060018154018082558091505090600182039060005260206000209060050201600090919290919091506000820151816000015560208201518160010160006101000a81548173ffffffffffffffffffffffffffffffffffffffff021916908373ffffffffffffffffffffffffffffffffffffffff16021790555060408201518160020160006101000a81548173ffffffffffffffffffffffffffffffffffffffff021916908373ffffffffffffffffffffffffffffffffffffffff1602179055506060820151816003015560808201518160040160006101000a81548160ff021916908360ff1602179055505050905061098b6001600260008973ffffffffffffffffffffffffffffffffffffffff1673ffffffffffffffffffffffffffffffffffffffff16815260200190815260200160002054610b6a90919063ffffffff16565b600260008873ffffffffffffffffffffffffffffffffffffffff1673ffffffffffffffffffffffffffffffffffffffff16815260200190815260200160002081905550610a216001600360008873ffffffffffffffffffffffffffffffffffffffff1673ffffffffffffffffffffffffffffffffffffffff16815260200190815260200160002054610b6a90919063ffffffff16565b600360008773ffffffffffffffffffffffffffffffffffffffff1673ffffffffffffffffffffffffffffffffffffffff1681526020019081526020016000208190555080915050949350505050565b600073ffffffffffffffffffffffffffffffffffffffff168173ffffffffffffffffffffffffffffffffffffffff1614151515610aac57600080fd5b8073ffffffffffffffffffffffffffffffffffffffff166000809054906101000a900473ffffffffffffffffffffffffffffffffffffffff1673ffffffffffffffffffffffffffffffffffffffff167f8be0079c531659141344cd1fd0a4f28419497f9722a3daafe3b4186f6b6457e060405160405180910390a3806000806101000a81548173ffffffffffffffffffffffffffffffffffffffff021916908373ffffffffffffffffffffffffffffffffffffffff16021790555050565b60008183019050828110151515610b7d57fe5b809050929150505600a165627a7a723058200c1fab1072405331722405fafc287015dcb81c3e11ca333c435803c371a2a17a0029",
  "source": "pragma solidity ^0.4.23;\n\nimport \"openzeppelin-solidity/contracts/math/SafeMath.sol\";\n\nimport \"./Pausible.sol\";\n\n/**\n * @title Escrows\n * @dev Define escrows in Descro\n */\ncontract Escrows is Pausible {\n  using SafeMath for uint256;\n\n  uint8 constant CREATED = 0;\n  uint8 constant DEPOSITED = 1;\n  uint8 constant PRODUCT_SENT = 2;\n  uint8 constant APPROVED = 3;\n  uint8 constant CANCELLED = 4;\n  uint8 constant COMPLETED = 5;\n  uint8 constant REFUNDED = 6;\n\n  struct Escrow {\n    uint createdAt;\n    address buyer;\n    address seller;\n    uint balance;\n    uint8 status;\n  }\n\n  Escrow[] public escrows;\n\n  mapping (address => uint) escrowCountByBuyer;\n  mapping (address => uint) escrowCountBySeller;\n\n  /* Loggers */\n  event LogEscrow(uint escrowId, address buyer, address seller, uint balance, uint8 status);\n\n  function logEscrow(uint _id, Escrow _escrow) internal {\n    emit LogEscrow(_id, _escrow.buyer, _escrow.seller, _escrow.balance, _escrow.status);\n  }\n\n  /* Modifiers */\n  modifier onlyStatus(uint _id, uint _status) {\n    require(escrows[_id].status == _status);\n    _;\n  }\n\n  modifier onlyBuyerOrSeller(uint _id) {\n    Escrow memory escrow = escrows[_id];\n    require(msg.sender == escrow.buyer || msg.sender == escrow.seller);\n    _;\n  }\n\n  modifier onlyBuyer(uint _id) {\n    Escrow memory escrow = escrows[_id];\n    require(msg.sender == escrow.buyer);\n    _;\n  }\n\n  modifier onlySeller(uint _id) {\n    Escrow memory escrow = escrows[_id];\n    require(msg.sender == escrow.seller);\n    _;\n  }\n\n  modifier requireBalance(uint _id) {\n    Escrow memory escrow = escrows[_id];\n    require(escrow.balance > 0);\n    _;\n  }\n\n  /* Utility Modifiers */\n  modifier onlyValidAddress(address _address) {\n    require(_address != 0x0);\n    _;\n  }\n\n  /* Creator */\n  function _addNewEscrow(address _buyer, address _seller, uint _balance, uint8 _status) private returns (uint) {\n    uint id = escrows.push(Escrow(now, _buyer, _seller, _balance, _status));\n    escrowCountByBuyer[_buyer] = escrowCountByBuyer[_buyer].add(1);\n    escrowCountBySeller[_seller] = escrowCountBySeller[_seller].add(1);\n    return id;\n  }\n\n  function createNewEscrow(address _buyer, address _seller) external onlyInService onlyValidAddress(_buyer) onlyValidAddress(_seller) {\n    _addNewEscrow(_buyer, _seller, 0, CREATED);\n  }\n\n  function createNewEscrowWithDeposit(address _seller) external payable onlyInService onlyValidAddress(_seller) {\n    uint8 _status = DEPOSITED;\n    uint id = _addNewEscrow(msg.sender, _seller, msg.value, _status);\n\n    emit LogEscrow(id, msg.sender, _seller, msg.value, _status);\n  }\n}\n",
  "sourcePath": "/Users/KimSeokjun/Development/descro/contracts/Escrows.sol",
  "compiler": {
    "name": "solc",
    "version": "0.4.24+commit.e67f0147.Emscripten.clang"
  },
  "schemaVersion": "2.0.1",
  "updatedAt": "2018-07-03T12:36:10.042Z"
}