{
  "contractName": "Escrows",
  "abi": [
    {
      "constant": true,
      "inputs": [
        {
          "name": "",
          "type": "uint256"
        }
      ],
      "name": "escrows",
      "outputs": [
        {
          "name": "createdAt",
          "type": "uint256"
        },
        {
          "name": "buyer",
          "type": "address"
        },
        {
          "name": "seller",
          "type": "address"
        },
        {
          "name": "balance",
          "type": "uint256"
        },
        {
          "name": "status",
          "type": "uint8"
        }
      ],
      "payable": false,
      "stateMutability": "view",
      "type": "function"
    },
    {
      "constant": false,
      "inputs": [],
      "name": "unpause",
      "outputs": [],
      "payable": false,
      "stateMutability": "nonpayable",
      "type": "function"
    },
    {
      "constant": false,
      "inputs": [],
      "name": "renounceOwnership",
      "outputs": [],
      "payable": false,
      "stateMutability": "nonpayable",
      "type": "function"
    },
    {
      "constant": false,
      "inputs": [],
      "name": "pause",
      "outputs": [],
      "payable": false,
      "stateMutability": "nonpayable",
      "type": "function"
    },
    {
      "constant": true,
      "inputs": [],
      "name": "owner",
      "outputs": [
        {
          "name": "",
          "type": "address"
        }
      ],
      "payable": false,
      "stateMutability": "view",
      "type": "function"
    },
    {
      "constant": true,
      "inputs": [],
      "name": "isPaused",
      "outputs": [
        {
          "name": "",
          "type": "bool"
        }
      ],
      "payable": false,
      "stateMutability": "view",
      "type": "function"
    },
    {
      "constant": true,
      "inputs": [],
      "name": "totalEscrowsCount",
      "outputs": [
        {
          "name": "",
          "type": "uint256"
        }
      ],
      "payable": false,
      "stateMutability": "view",
      "type": "function"
    },
    {
      "constant": false,
      "inputs": [
        {
          "name": "_newOwner",
          "type": "address"
        }
      ],
      "name": "transferOwnership",
      "outputs": [],
      "payable": false,
      "stateMutability": "nonpayable",
      "type": "function"
    },
    {
      "anonymous": false,
      "inputs": [
        {
          "indexed": false,
          "name": "escrowId",
          "type": "uint256"
        },
        {
          "indexed": false,
          "name": "buyer",
          "type": "address"
        },
        {
          "indexed": false,
          "name": "seller",
          "type": "address"
        },
        {
          "indexed": false,
          "name": "balance",
          "type": "uint256"
        },
        {
          "indexed": false,
          "name": "status",
          "type": "uint8"
        }
      ],
      "name": "LogEscrow",
      "type": "event"
    },
    {
      "anonymous": false,
      "inputs": [
        {
          "indexed": false,
          "name": "escrowId",
          "type": "uint256"
        },
        {
          "indexed": false,
          "name": "buyer",
          "type": "address"
        },
        {
          "indexed": false,
          "name": "seller",
          "type": "address"
        },
        {
          "indexed": false,
          "name": "balance",
          "type": "uint256"
        }
      ],
      "name": "LogDepositEscrow",
      "type": "event"
    },
    {
      "anonymous": false,
      "inputs": [
        {
          "indexed": false,
          "name": "escrowId",
          "type": "uint256"
        },
        {
          "indexed": false,
          "name": "buyer",
          "type": "address"
        },
        {
          "indexed": false,
          "name": "seller",
          "type": "address"
        },
        {
          "indexed": false,
          "name": "balance",
          "type": "uint256"
        }
      ],
      "name": "LogCompleteEscrow",
      "type": "event"
    },
    {
      "anonymous": false,
      "inputs": [
        {
          "indexed": true,
          "name": "previousOwner",
          "type": "address"
        }
      ],
      "name": "OwnershipRenounced",
      "type": "event"
    },
    {
      "anonymous": false,
      "inputs": [
        {
          "indexed": true,
          "name": "previousOwner",
          "type": "address"
        },
        {
          "indexed": true,
          "name": "newOwner",
          "type": "address"
        }
      ],
      "name": "OwnershipTransferred",
      "type": "event"
    }
  ],
  "bytecode": "0x608060405260008060146101000a81548160ff021916908315150217905550336000806101000a81548173ffffffffffffffffffffffffffffffffffffffff021916908373ffffffffffffffffffffffffffffffffffffffff16021790555061070c8061006d6000396000f30060806040526004361061008e576000357c0100000000000000000000000000000000000000000000000000000000900463ffffffff168063012f52ee146100935780633f4ba83a1461014e578063715018a6146101655780638456cb591461017c5780638da5cb5b14610193578063b187bd26146101ea578063eb0e7e5714610219578063f2fde38b14610244575b600080fd5b34801561009f57600080fd5b506100be60048036038101908080359060200190929190505050610287565b604051808681526020018573ffffffffffffffffffffffffffffffffffffffff1673ffffffffffffffffffffffffffffffffffffffff1681526020018473ffffffffffffffffffffffffffffffffffffffff1673ffffffffffffffffffffffffffffffffffffffff1681526020018381526020018260ff1660ff1681526020019550505050505060405180910390f35b34801561015a57600080fd5b50610163610319565b005b34801561017157600080fd5b5061017a6103ab565b005b34801561018857600080fd5b506101916104ad565b005b34801561019f57600080fd5b506101a8610541565b604051808273ffffffffffffffffffffffffffffffffffffffff1673ffffffffffffffffffffffffffffffffffffffff16815260200191505060405180910390f35b3480156101f657600080fd5b506101ff610566565b604051808215151515815260200191505060405180910390f35b34801561022557600080fd5b5061022e610579565b6040518082815260200191505060405180910390f35b34801561025057600080fd5b50610285600480360381019080803573ffffffffffffffffffffffffffffffffffffffff16906020019092919050505061057f565b005b60018181548110151561029657fe5b90600052602060002090600502016000915090508060000154908060010160009054906101000a900473ffffffffffffffffffffffffffffffffffffffff16908060020160009054906101000a900473ffffffffffffffffffffffffffffffffffffffff16908060030154908060040160009054906101000a900460ff16905085565b600060149054906101000a900460ff16151561033457600080fd5b6000809054906101000a900473ffffffffffffffffffffffffffffffffffffffff1673ffffffffffffffffffffffffffffffffffffffff163373ffffffffffffffffffffffffffffffffffffffff1614151561038f57600080fd5b60008060146101000a81548160ff021916908315150217905550565b6000809054906101000a900473ffffffffffffffffffffffffffffffffffffffff1673ffffffffffffffffffffffffffffffffffffffff163373ffffffffffffffffffffffffffffffffffffffff1614151561040657600080fd5b6000809054906101000a900473ffffffffffffffffffffffffffffffffffffffff1673ffffffffffffffffffffffffffffffffffffffff167ff8df31144d9c2f0f6b59d69b8b98abd5459d07f2742c4df920b25aae33c6482060405160405180910390a260008060006101000a81548173ffffffffffffffffffffffffffffffffffffffff021916908373ffffffffffffffffffffffffffffffffffffffff160217905550565b600060149054906101000a900460ff161515156104c957600080fd5b6000809054906101000a900473ffffffffffffffffffffffffffffffffffffffff1673ffffffffffffffffffffffffffffffffffffffff163373ffffffffffffffffffffffffffffffffffffffff1614151561052457600080fd5b6001600060146101000a81548160ff021916908315150217905550565b6000809054906101000a900473ffffffffffffffffffffffffffffffffffffffff1681565b600060149054906101000a900460ff1681565b60025481565b6000809054906101000a900473ffffffffffffffffffffffffffffffffffffffff1673ffffffffffffffffffffffffffffffffffffffff163373ffffffffffffffffffffffffffffffffffffffff161415156105da57600080fd5b6105e3816105e6565b50565b600073ffffffffffffffffffffffffffffffffffffffff168173ffffffffffffffffffffffffffffffffffffffff161415151561062257600080fd5b8073ffffffffffffffffffffffffffffffffffffffff166000809054906101000a900473ffffffffffffffffffffffffffffffffffffffff1673ffffffffffffffffffffffffffffffffffffffff167f8be0079c531659141344cd1fd0a4f28419497f9722a3daafe3b4186f6b6457e060405160405180910390a3806000806101000a81548173ffffffffffffffffffffffffffffffffffffffff021916908373ffffffffffffffffffffffffffffffffffffffff160217905550505600a165627a7a723058202fbc7abce230a10b084ad211ba56ba7383d5544610a16da7e2df5d98d353a2ec0029",
  "source": "pragma solidity ^0.4.23;\n\nimport \"openzeppelin-solidity/contracts/math/SafeMath.sol\";\n\nimport \"./Pausible.sol\";\n\n/**\n * @title Escrows\n * @dev Define escrows in Descro\n */\ncontract Escrows is Pausible {\n  using SafeMath for uint256;\n\n  uint8 constant CREATED = 0;\n  uint8 constant DEPOSITED = 1;\n  uint8 constant PRODUCT_SENT = 2;\n  uint8 constant APPROVED = 3;\n  uint8 constant CANCELLED = 4;\n  uint8 constant COMPLETED = 5;\n  uint8 constant REFUNDED = 6;\n\n  struct Escrow {\n    uint createdAt;\n    address buyer;\n    address seller;\n    uint balance;\n    uint8 status;\n  }\n\n  Escrow[] public escrows;\n  uint public totalEscrowsCount;\n\n  mapping (address => uint) escrowCountByBuyer;\n  mapping (address => uint) escrowCountBySeller;\n\n  /* Loggers */\n  event LogEscrow(uint escrowId, address buyer, address seller, uint balance, uint8 status);\n  event LogDepositEscrow(uint escrowId, address buyer, address seller, uint balance);\n  event LogCompleteEscrow(uint escrowId, address buyer, address seller, uint balance);\n\n  function logEscrow(uint _id, Escrow _escrow) internal {\n    emit LogEscrow(_id, _escrow.buyer, _escrow.seller, _escrow.balance, _escrow.status);\n\n    if (_escrow.status == DEPOSITED) {\n      emit LogDepositEscrow(_id, _escrow.buyer, _escrow.seller, _escrow.balance);\n    } else if (_escrow.status == COMPLETED) {\n      emit LogCompleteEscrow(_id, _escrow.buyer, _escrow.seller, _escrow.balance);\n    }\n  }\n\n  /* Modifiers */\n  modifier onlyStatus(uint _id, uint _status) {\n    require(escrows[_id].status == _status);\n    _;\n  }\n\n  modifier onlyBuyerOrSeller(uint _id) {\n    Escrow memory escrow = escrows[_id];\n    require(msg.sender == escrow.buyer || msg.sender == escrow.seller);\n    _;\n  }\n\n  modifier onlyBuyer(uint _id) {\n    Escrow memory escrow = escrows[_id];\n    require(msg.sender == escrow.buyer);\n    _;\n  }\n\n  modifier onlySeller(uint _id) {\n    Escrow memory escrow = escrows[_id];\n    require(msg.sender == escrow.seller);\n    _;\n  }\n\n  modifier onlyWithdrawable(uint _id) {\n    Escrow memory escrow = escrows[_id];\n    require(escrow.createdAt + 14 days > now || escrow.status == APPROVED);\n    _;\n  }\n\n  modifier requireBalance(uint _id) {\n    Escrow memory escrow = escrows[_id];\n    require(escrow.balance > 0);\n    _;\n  }\n\n  /* Utility Modifiers */\n  modifier onlyValidAddress(address _address) {\n    require(_address != 0x0);\n    _;\n  }\n\n  /* Creator */\n  function _addNewEscrow(\n    address _buyer,\n    address _seller,\n    uint _balance,\n    uint8 _status\n  ) internal {\n    require(_buyer != _seller);\n    uint id = escrows.push(Escrow(now, _buyer, _seller, _balance, _status));\n    totalEscrowsCount++;\n    escrowCountByBuyer[_buyer] = escrowCountByBuyer[_buyer].add(1);\n    escrowCountBySeller[_seller] = escrowCountBySeller[_seller].add(1);\n\n    emit LogEscrow(id, _buyer, _seller, _balance, _status);\n  }\n}\n",
  "sourcePath": "/Users/colus001/Development/descro/contracts/Escrows.sol",
  "compiler": {
    "name": "solc",
    "version": "0.4.24+commit.e67f0147.Emscripten.clang"
  },
  "schemaVersion": "2.0.1",
  "updatedAt": "2018-08-17T14:06:23.594Z"
}