{
  "contractName": "Escrow",
  "abi": [
    {
      "constant": true,
      "inputs": [],
      "name": "seller",
      "outputs": [
        {
          "name": "",
          "type": "address"
        }
      ],
      "payable": false,
      "stateMutability": "view",
      "type": "function"
    },
    {
      "constant": true,
      "inputs": [],
      "name": "createdBy",
      "outputs": [
        {
          "name": "",
          "type": "address"
        }
      ],
      "payable": false,
      "stateMutability": "view",
      "type": "function"
    },
    {
      "constant": true,
      "inputs": [],
      "name": "buyer",
      "outputs": [
        {
          "name": "",
          "type": "address"
        }
      ],
      "payable": false,
      "stateMutability": "view",
      "type": "function"
    },
    {
      "constant": true,
      "inputs": [],
      "name": "owner",
      "outputs": [
        {
          "name": "",
          "type": "address"
        }
      ],
      "payable": false,
      "stateMutability": "view",
      "type": "function"
    },
    {
      "inputs": [
        {
          "name": "_createdBy",
          "type": "address"
        },
        {
          "name": "_budget",
          "type": "uint256"
        }
      ],
      "payable": false,
      "stateMutability": "nonpayable",
      "type": "constructor"
    },
    {
      "anonymous": false,
      "inputs": [],
      "name": "Deposited",
      "type": "event"
    },
    {
      "anonymous": false,
      "inputs": [],
      "name": "Cancelled",
      "type": "event"
    },
    {
      "anonymous": false,
      "inputs": [],
      "name": "Completed",
      "type": "event"
    },
    {
      "anonymous": false,
      "inputs": [],
      "name": "ProductSent",
      "type": "event"
    },
    {
      "constant": true,
      "inputs": [],
      "name": "getCreatedBy",
      "outputs": [
        {
          "name": "",
          "type": "address"
        }
      ],
      "payable": false,
      "stateMutability": "view",
      "type": "function"
    },
    {
      "constant": false,
      "inputs": [
        {
          "name": "_seller",
          "type": "address"
        }
      ],
      "name": "setSeller",
      "outputs": [],
      "payable": false,
      "stateMutability": "nonpayable",
      "type": "function"
    },
    {
      "constant": false,
      "inputs": [
        {
          "name": "_buyer",
          "type": "address"
        }
      ],
      "name": "setBuyer",
      "outputs": [],
      "payable": false,
      "stateMutability": "nonpayable",
      "type": "function"
    },
    {
      "constant": false,
      "inputs": [],
      "name": "deposit",
      "outputs": [],
      "payable": true,
      "stateMutability": "payable",
      "type": "function"
    },
    {
      "constant": false,
      "inputs": [],
      "name": "send",
      "outputs": [],
      "payable": false,
      "stateMutability": "nonpayable",
      "type": "function"
    },
    {
      "constant": false,
      "inputs": [],
      "name": "approve",
      "outputs": [],
      "payable": false,
      "stateMutability": "nonpayable",
      "type": "function"
    },
    {
      "constant": false,
      "inputs": [],
      "name": "cancel",
      "outputs": [],
      "payable": false,
      "stateMutability": "nonpayable",
      "type": "function"
    }
  ],
  "bytecode": "0x6080604052600060055534801561001557600080fd5b5060405160408061095b833981018060405281019080805190602001909291908051906020019092919050505060008111151561005157600080fd5b80600481905550816000806101000a81548173ffffffffffffffffffffffffffffffffffffffff021916908373ffffffffffffffffffffffffffffffffffffffff160217905550600060068190555050506108aa806100b16000396000f3006080604052600436106100af576000357c0100000000000000000000000000000000000000000000000000000000900463ffffffff16806308551a53146100b457806312424e3f1461010b5780633a5673a4146101225780637150d8ae1461017957806375f96189146101d05780638da5cb5b14610227578063a3f09ad61461027e578063b46300ec146102c1578063d0e30db0146102d8578063e99d2866146102e2578063ea8a1af014610325575b600080fd5b3480156100c057600080fd5b506100c961033c565b604051808273ffffffffffffffffffffffffffffffffffffffff1673ffffffffffffffffffffffffffffffffffffffff16815260200191505060405180910390f35b34801561011757600080fd5b50610120610362565b005b34801561012e57600080fd5b506101376103e5565b604051808273ffffffffffffffffffffffffffffffffffffffff1673ffffffffffffffffffffffffffffffffffffffff16815260200191505060405180910390f35b34801561018557600080fd5b5061018e61040a565b604051808273ffffffffffffffffffffffffffffffffffffffff1673ffffffffffffffffffffffffffffffffffffffff16815260200191505060405180910390f35b3480156101dc57600080fd5b506101e5610430565b604051808273ffffffffffffffffffffffffffffffffffffffff1673ffffffffffffffffffffffffffffffffffffffff16815260200191505060405180910390f35b34801561023357600080fd5b5061023c610459565b604051808273ffffffffffffffffffffffffffffffffffffffff1673ffffffffffffffffffffffffffffffffffffffff16815260200191505060405180910390f35b34801561028a57600080fd5b506102bf600480360381019080803573ffffffffffffffffffffffffffffffffffffffff16906020019092919050505061047f565b005b3480156102cd57600080fd5b506102d661055d565b005b6102e0610604565b005b3480156102ee57600080fd5b50610323600480360381019080803573ffffffffffffffffffffffffffffffffffffffff16906020019092919050505061066d565b005b34801561033157600080fd5b5061033a61074b565b005b600260009054906101000a900473ffffffffffffffffffffffffffffffffffffffff1681565b60038060065414151561037457600080fd5b338073ffffffffffffffffffffffffffffffffffffffff16600160009054906101000a900473ffffffffffffffffffffffffffffffffffffffff1673ffffffffffffffffffffffffffffffffffffffff161415156103d157600080fd5b60046006819055506103e16107de565b5050565b6000809054906101000a900473ffffffffffffffffffffffffffffffffffffffff1681565b600160009054906101000a900473ffffffffffffffffffffffffffffffffffffffff1681565b60008060009054906101000a900473ffffffffffffffffffffffffffffffffffffffff16905090565b600360009054906101000a900473ffffffffffffffffffffffffffffffffffffffff1681565b60008060065414151561049157600080fd5b81600073ffffffffffffffffffffffffffffffffffffffff168173ffffffffffffffffffffffffffffffffffffffff16141515156104ce57600080fd5b82600160006101000a81548173ffffffffffffffffffffffffffffffffffffffff021916908373ffffffffffffffffffffffffffffffffffffffff16021790555033600260006101000a81548173ffffffffffffffffffffffffffffffffffffffff021916908373ffffffffffffffffffffffffffffffffffffffff1602179055506001600681905550505050565b60028060065414151561056f57600080fd5b338073ffffffffffffffffffffffffffffffffffffffff16600260009054906101000a900473ffffffffffffffffffffffffffffffffffffffff1673ffffffffffffffffffffffffffffffffffffffff161415156105cc57600080fd5b60036006819055507fd75f848eaffeab093c6700750abd0227024b09a0f24be7271de2e2f338afc98060405160405180910390a15050565b60018060065414151561061657600080fd5b6004543414151561062657600080fd5b3460056000828254019250508190555060026006819055507fe78c52703146d72c70116227b622aeda4563a85894645e22555019045701d8d960405160405180910390a150565b60008060065414151561067f57600080fd5b81600073ffffffffffffffffffffffffffffffffffffffff168173ffffffffffffffffffffffffffffffffffffffff16141515156106bc57600080fd5b33600160006101000a81548173ffffffffffffffffffffffffffffffffffffffff021916908373ffffffffffffffffffffffffffffffffffffffff16021790555082600260006101000a81548173ffffffffffffffffffffffffffffffffffffffff021916908373ffffffffffffffffffffffffffffffffffffffff1602179055506001600681905550505050565b338073ffffffffffffffffffffffffffffffffffffffff166000809054906101000a900473ffffffffffffffffffffffffffffffffffffffff1673ffffffffffffffffffffffffffffffffffffffff161415156107a757600080fd5b60056006819055507f63b958841f79ab97cb5456da181454b9932c0e15a3b17f1cbd27e2a8bc61043760405160405180910390a150565b600260009054906101000a900473ffffffffffffffffffffffffffffffffffffffff1673ffffffffffffffffffffffffffffffffffffffff166108fc6005549081150290604051600060405180830381858888f19350505050158015610848573d6000803e3d6000fd5b50600680819055507fe06452d00b2b58f14a1fa6d499ea982ff93ea827ae700ea9ba03f4daddc94bc160405160405180910390a15600a165627a7a723058204d4e84aa2c53a9de8438313f56591a10a0d82dc3d459c7a89c62cff92194326a0029",
  "source": "pragma solidity ^0.4.24;\n\ncontract Escrow {\n  uint constant CREATED = 0;\n  uint constant READY = 1;\n  uint constant DEPOSITED = 2;\n  uint constant PRODUCT_SENT = 3;\n  uint constant APPROVED = 4;\n  uint constant CANCELLED = 5;\n  uint constant COMPLETED = 6;\n\n  address public createdBy;\n  address public buyer;\n  address public seller;\n  address public owner;\n  uint budget;\n  uint balance = 0;\n  uint status;\n\n  event Deposited();\n  event Cancelled();\n  event Completed();\n  event ProductSent();\n\n  modifier onlyValidAddress(address _address) {\n    require(_address != address(0));\n    _;\n  }\n\n  modifier onlyStatus(uint _status) {\n    require(status == _status);\n    _;\n  }\n\n  modifier onlyBuyer(address _buyer) {\n    require(buyer == _buyer);\n    _;\n  }\n\n  modifier onlySeller(address _seller) {\n    require(seller == _seller);\n    _;\n  }\n\n  modifier onlyCreatedBy(address _createdBy) {\n    require(createdBy == _createdBy);\n    _;\n  }\n\n  constructor(address _createdBy, uint _budget) public {\n    require(_budget > 0);\n    budget = _budget;\n    createdBy = _createdBy;\n    status = CREATED;\n  }\n\n  function getCreatedBy() external view returns (address) {\n    return createdBy;\n  }\n\n  function setStatus(uint _status) private {\n    status = _status;\n  }\n\n  function setSeller(address _seller) external onlyStatus(CREATED) onlyValidAddress(_seller) {\n    buyer = msg.sender;\n    seller = _seller;\n    status = READY;\n  }\n\n  function setBuyer(address _buyer) external onlyStatus(CREATED) onlyValidAddress(_buyer) {\n    buyer = _buyer;\n    seller = msg.sender;\n    status = READY;\n  }\n\n  function deposit() external payable onlyStatus(READY) {\n    require(msg.value == budget);\n    balance += msg.value;\n    status = DEPOSITED;\n    emit Deposited();\n  }\n\n  function send() external onlyStatus(DEPOSITED) onlySeller(msg.sender) {\n    status = PRODUCT_SENT;\n    emit ProductSent();\n  }\n\n  function approve() external onlyStatus(PRODUCT_SENT) onlyBuyer(msg.sender) {\n    status = APPROVED;\n    complete();\n  }\n\n  function cancel() external onlyCreatedBy(msg.sender) {\n    status = CANCELLED;\n    emit Cancelled();\n  }\n\n  function complete() private {\n    seller.transfer(balance);\n    status = COMPLETED;\n    emit Completed();\n  }\n}\n",
  "sourcePath": "/Users/KimSeokjun/Development/descro/contracts/Escrow.sol",
  "compiler": {
    "name": "solc",
    "version": "0.4.24+commit.e67f0147.Emscripten.clang"
  },
  "schemaVersion": "2.0.1",
  "updatedAt": "2018-06-29T13:20:16.751Z"
}